:100000000C943A030C949C080C9475080C946203AD
:100010000C9462030C9462030C944A0D0C946203DA
:100020000C9462030C9462030C9462030C946203BC
:100030000C9462030C9462030C9462030C946203AC
:100040000C942B080C9462030C94DF060C94B906F4
:100050000C9462030C9462030C9462030C9462038C
:100060000C941F090C946203631B041B6E1B6E1B14
:100070006E1B6E1B251B6E1BF71A6E1B6E1B6E1BF9
:100080006E1B6E1B6E1B301B421B6E1B631B6E1B9D
:100090006E1B4D1B737461727475702E2E2E004F83
:1000A00070656E456E657267794D6F6E69746F72BB
:1000B0002E6F726700656D6F6E50692056004F702D
:1000C000656E456E657267794D6F6E00656D6F6E1A
:1000D0005069205600204E6574776F726B2000398E
:1000E00031354D687A003836384D687A003433330C
:1000F0004D687A00204672657120004E6F6465205D
:100100000052464D3639435720496E69743A2000F3
:10011000426F6F74696E672E2E2E0052617370628B
:100120006572727920506900445331384232302070
:1001300054656D700044657465637465643A2000AD
:100140003020445331384232302064657465637422
:10015000656400445331384232302054656D70007C
:1001600044657465637465643A20002044533138F3
:100170004232300044657465637420004354320099
:100180004354203220646574656374004354312005
:10019000004354203120646574656374004E6F2001
:1001A00043542773006E6F20435420646574656365
:1001B000746564004465746563746564200056006A
:1001C000417373756D696E672056524D533A200026
:1001D000555341206D6F6465004143204E4F5420BC
:1001E0006465746563746564202D2041707061726C
:1001F000656E7420506F7765722063616C63206553
:100200006E61626C6564004143204E4F542044652A
:100210007465637465640050686173652053686930
:1002200066743A2000560056726D733A2000566389
:10023000616C3A2000555341206D6F6465203E206B
:100240000041432057617665204465746563746599
:1002500064202D205265616C20506F776572206399
:10026000616C6320656E61626C6564004143205778
:100270006176652044657465637465640056005654
:10028000524D53204143207E00435420322043618D
:100290006C3A2000435420312043616C3A20000026
:1002A0000000080002010000030407000000000035
:1002B0000000002000205553412000207100204DF7
:1002C000487A002040200020670020690020000AB2
:1002D000417661696C61626C6520636F6D6D616E02
:1002E00064733A0A20203C6E6E3E20692020202054
:1002F000202D20736574206E6F646520494473203F
:10030000287374616E64617264206E6F6465206925
:1003100064732061726520312E2E3330290A20202B
:100320003C6E3E20622020202020202D207365740A
:10033000204D487A2062616E64202834203D2034AC
:1003400033332C2038203D203836382C2039203DBE
:1003500020393135290A20203C6E6E6E3E20672000
:100360002020202D20736574206E6574776F726B6A
:100370002067726F7570202852464D3132206F6EA3
:100380006C7920616C6C6F7773203231322C2030A5
:10039000203D20616E79290A20203C6E3E2063209A
:1003A00020202020202D2073657420636F6C6C65E5
:1003B0006374206D6F64652028616476616E636587
:1003C000642C206E6F726D616C6C792030290A206C
:1003D000202E2E2E2C3C6E6E3E2061202D2073652B
:1003E0006E642064617461207061636B6574207455
:1003F0006F206E6F6465203C6E6E3E2C20726571BE
:10040000756573742061636B0A20202E2E2E2C3CA0
:100410006E6E3E2073202D2073656E6420646174BF
:1004200061207061636B657420746F206E6F64650A
:10043000203C6E6E3E2C206E6F2061636B0A202084
:100440002E2E2E2C3C6E3E207020202D20536574C5
:100450002041432041646170746572205663616C71
:10046000203170203D20554B2C203270203D2055EE
:1004700053410A20207620202020202020202020E8
:100480002D2053686F77206669726D7761726520E1
:1004900076657273696F6E0A20203C6E3E20712073
:1004A00020202020202D20736574207175696574CB
:1004B000206D6F6465202831203D20646F6E2774A5
:1004C000207265706F727420626164207061636B6A
:1004D000657473290A005D005B656D6F6E50692E4F
:1004E00000203F004F4B0020620A00202D3E2000DC
:1004F00020282D30290020004F4B20002900280003
:10050000200020002000005EBCE2613FDD83C29C31
:100510007E20A3FD1F419DC3217FFCA2401E5F01E1
:10052000E3BD3E6082DC237D9FC1421CFEA0E1BF93
:100530005D0380DE3C62BEE0025CDF81633D7C22C5
:10054000C09E1D43A1FF4618FAA427799BC584DAF3
:100550003866E5BB5907DB856739BAE406581947A1
:10056000A5FB7826C49A653BD987045AB8E6A7F953
:100570001B45C6987A24F8A6441A99C7257B3A6485
:1005800086D85B05E7B98CD2306EEDB3510F4E10B3
:10059000F2AC2F7193CD114FADF3702ECC92D38D61
:1005A0006F31B2EC0E50AFF1134DCE90722C6D3313
:1005B000D18F0C52B0EE326C8ED0530DEFB1F0AE45
:1005C0004C1291CF2D73CA947628ABF51749085673
:1005D000B4EA6937D58B5709EBB536688AD495CB21
:1005E0002977F4AA4816E9B7550B88D6346A2B75D3
:1005F00097C94A14F6A8742AC896154BA9F7B6E805
:100600000A54D7896B3500000000240027002A0017
:1006100000000000250028002B0001040200030256
:10062000048A050506C30B2019421E2C25802E9036
:100630002FAA302D370038003C8F3D106F2000006E
:10064000000000230026002900040404040404041C
:100650000402020202020203030303030301020471
:100660000810204080010204081020010204081034
:100670002000EB1E11241FBECFEFD8E0DEBFCDBFA0
:1006800011E0A0E0B1E0E6E9F5E402C005900D92CA
:10069000A43BB107D9F725E0A4EBB1E001C01D925E
:1006A000A633B207E1F713E0CAE3D3E004C0219711
:1006B000FE010E948122C933D107C9F70E942C1480
:1006C0000C94C9220C940000CF92DF92EF92FF921B
:1006D0000F931F93CF93DF936C017A018B01C0E0DE
:1006E000D0E0CE15DF0589F0D8016D918D01D601DE
:1006F000ED91FC910190F081E02DC6010995892BC7
:1007000011F47E0102C02196ECCFC701DF91CF9199
:100710001F910F91FF90EF90DF90CF900895FC0113
:10072000538D448D252F30E0842F90E0821B930B56
:10073000541710F0CF96089501970895FC01918DFC
:10074000828D981761F0828DDF01A80FB11D5D9633
:100750008C91928D9F5F9F73928F90E008958FEFA1
:100760009FEF0895FC01918D828D981731F0828D55
:10077000E80FF11D858D90E008958FEF9FEF0895AC
:10078000FC01918D228D892F90E0805C9F4F821B10
:1007900091098F73992708958BE594E00E94C00317
:1007A00021E0892B09F420E0822F0895FC01848D3B
:1007B000DF01A80FB11DA35ABF4F2C91848D90E08B
:1007C00001968F739927848FA689B7892C93A08966
:1007D000B1898C9180648C93938D848D981306C01D
:1007E0000288F389E02D80818F7D80830895EF92C8
:1007F000FF920F931F93CF93DF93EC0181E0888FDB
:100800009B8D8C8D981305C0E889F989808185FDC1
:1008100024C0F62E0B8D10E00F5F1F4F0F731127B2
:10082000E02E8C8DE8120CC00FB607FCFACFE889D9
:10083000F989808185FFF5CFCE010E94D603F1CFE3
:100840008B8DFE01E80FF11DE35AFF4FF0820B8FF5
:10085000EA89FB898081806207C0EE89FF89608315
:10086000E889F98980818064808381E090E0DF916C
:10087000CF911F910F91FF90EF900895CF93DF9349
:10088000EC01888D8823C9F0EA89FB89808185FD88
:1008900005C0A889B9898C9186FD0FC00FB607FCE9
:1008A000F5CF808185FFF2CFA889B9898C9185FF2A
:1008B000EDCFCE010E94D603E7CFDF91CF9108950F
:1008C00080E090E0892B29F00E94CC0381110C94E8
:1008D000000008953FB7F8948091BC039091BD0348
:1008E000A091BE03B091BF0326B5A89B05C02F3FC2
:1008F00019F00196A11DB11D3FBFBA2FA92F982F46
:100900008827820F911DA11DB11DBC01CD0142E0C0
:10091000660F771F881F991F4A95D1F7089508958C
:1009200085ED8093BC008091BC0084FDFCCF1092CB
:100930003304089540919203262F30E0240F311D97
:1009400021323105DCF4209133042430C9F4FC0158
:1009500080E090E0861758F4309192032191DC01F9
:10096000A059BC4FA30FB11D2C930196F3CF8091DA
:100970009203680F6093920380E0089581E00895E8
:1009800082E00895089581E090E03091B5012091D2
:10099000B401321710F480E090E0919581959109AF
:1009A00008958091B5019091B401891730F48F5F5B
:1009B0008093B50180E090E008958FEF9FEF089558
:1009C0008091B40190E02091B501821B91090895B6
:1009D000CF92DF92EF92FF920F931F93CF93DF930B
:1009E0007C01262F972F8A0180913404882391F06F
:1009F000C62FD72F6E01C40ED51ECC15DD0571F0A4
:100A00006991D701ED91FC910190F081E02DC70132
:100A10000995F3CF642F822F0E949A04C801DF91B9
:100A2000CF911F910F91FF90EF90DF90CF9008959D
:100A3000CF93DF931F92CDB7DEB769832091340443
:100A40002223D1F020915704203240F021E030E001
:100A5000FC013383228380E090E015C0809135044F
:100A6000E82FF0E0EA5CFB4F998190838F5F8093E1
:100A700035048093570405C061E0CE0101960E94C1
:100A80009A0481E090E00F90DF91CF91089508954E
:100A9000089580E090E008950E94C422DC01ED9169
:100AA000FC910190F081E02D0994EF92FF920F9359
:100AB0001F93CF93DF938C017B01C0E0D0E0F7015F
:100AC000EC0FFD1F6491662361F0D801ED91FC915C
:100AD0000190F081E02DC8010995892B11F0219634
:100AE000EECFCE01DF91CF911F910F91FF90EF904C
:100AF00008956115710579F0FB0101900020E9F777
:100B00003197AF01461B570BDC01ED91FC91028040
:100B1000F381E02D099480E090E008954F925F9278
:100B20006F927F92EF92FF920F931F93CF93DF9379
:100B3000CDB7DEB7A1970FB6F894DEBF0FBECDBF1D
:100B40007C01FA01CB0119A2223008F42AE08E01BF
:100B50000F5D1F4F422E512C612C712CBF01A30140
:100B600092010E944022F901CA01015011096A3024
:100B700014F4605D01C0695CD8016C93232B242BB5
:100B8000252B61F7B801C7010E947905A1960FB620
:100B9000F894DEBF0FBECDBFDF91CF911F910F91B3
:100BA000FF90EF907F906F905F904F9008954F92DD
:100BB0005F926F927F928F929F92AF92BF92CF92ED
:100BC000DF92EF92FF92CF93DF93EC016A017B01FA
:100BD000B22E9A01AB01C701B6010E9412228823EE
:100BE00019F064EA71E027C026013701E89477F82C
:100BF0002FEF3FEF4FE75FE7C301B2010E941222E0
:100C000081110DC02FEF3FEF4FE75FE7C301B20146
:100C10000E94FB1F18161CF468EA71E00CC02FEF4D
:100C20003FEF4FE75FE4C701B6010E945A21181653
:100C30009CF46CEA71E0CE01DF91CF91FF90EF90D0
:100C4000DF90CF90BF90AF909F908F907F906F90EC
:100C50005F904F900C9479052FEF3FEF4FE75FECDB
:100C6000C701B6010E94FB1F87FDE3CF20E030E003
:100C7000A901C701B6010E94FB1F87FF0AC06DE2F0
:100C8000CE010E944E054C01F7FAF094F7F8F0946B
:100C900002C0812C912CA12C60E070E080E09FE3E9
:100CA000AB1441F020E030E040E251E40E9400202B
:100CB000A394F6CF9B01AC01C701B6010E948F1F20
:100CC0002B013C010E9479206B017C010E94A8202D
:100CD0009B01AC01C301B2010E948E1F2B013C019C
:100CE0002AE0B701A601CE010E948E057C01E80C26
:100CF000F91CBB2031F06EE2CE010E944E05E80ED9
:100D0000F91EDB2CDD2029F120E030E040E251E447
:100D1000C301B2010E945F212B013C010E94792096
:100D20004B01A12CB12C2AE0B501A401CE010E94F7
:100D30008E05E80EF91EC501B4010E94A8209B0192
:100D4000AC01C301B2010E948E1F2B013C01DA9459
:100D5000D9CFC701DF91CF91FF90EF90DF90CF9077
:100D6000BF90AF909F908F907F906F905F904F90CB
:100D700008951F920F920FB60F9211242F933F9355
:100D80004F935F936F937F938F939F93AF93BF9393
:100D9000EF93FF938BE594E00E94D603FF91EF91D0
:100DA000BF91AF919F918F917F916F915F914F9183
:100DB0003F912F910F900FBE0F901F9018951F928B
:100DC0000F920FB60F9211242F938F939F93EF934F
:100DD000FF93E0916B04F0916C048081E0917104C9
:100DE000F091720482FD12C09081809174048F5F33
:100DF0008F7320917504821751F0E0917404F0E034
:100E0000E55AFB4F958F8093740401C08081FF9158
:100E1000EF919F918F912F910F900FBE0F901F9088
:100E20001895833081F028F4813099F08230A1F058
:100E300008958730A9F08830B9F08430D1F48091DA
:100E400080008F7D03C0809180008F778093800029
:100E5000089584B58F7702C084B58F7D84BD0895D1
:100E60008091B0008F7703C08091B0008F7D809318
:100E7000B00008951F93CF93DF93282F30E0F9013E
:100E8000E156FD4F8491F901E35AF94FD491F901EC
:100E9000E75BF94FC491CC23C9F0162F81110E9452
:100EA0001107EC2FF0E0EE0FFF1FE05FF94FA59167
:100EB000B4918FB7F894111105C09C91ED2FE09576
:100EC000E92302C0EC91ED2BEC938FBFDF91CF9122
:100ED0001F910895CF93DF9390E0FC01E35AF94FFF
:100EE0002491FC01E75BF94F8491882361F190E044
:100EF000880F991FFC01EA5FF94FC591D491FC015D
:100F0000E05FF94FA591B491611109C09FB7F894C2
:100F10008881209582238883EC912E230BC0623038
:100F200061F49FB7F8943881822F8095832388835A
:100F3000EC912E2B2C939FBF06C08FB7F894E881BD
:100F40002E2B28838FBFDF91CF9108958E3008F02C
:100F50008E508770806480937C0080917A008064DA
:100F600080937A0080917A0086FDFCCF8091780092
:100F70002091790090E0922B08958F929F92AF92EA
:100F8000BF92CF92DF92EF92FF926B017C010E94A1
:100F90006A044B015C01C114D104E104F104F1F0D5
:100FA0000E946A04DC01CB0188199909AA09BB09CE
:100FB000883E9340A105B10570F321E0C21AD10823
:100FC000E108F10888EE880E83E0981EA11CB11C90
:100FD000C114D104E104F10419F7DDCFFF90EF90C3
:100FE000DF90CF90BF90AF909F908F9008952FB7D4
:100FF000F8946091B8037091B9038091BA0390910D
:10100000BB032FBF08950F931F930E94F707009112
:101010006B0310916C0320916D0330916E03DC0122
:10102000CB01801B910BA20BB30BCD97A105B10592
:1010300028F08091B6018F5F8093B6010E94F70778
:1010400060936B0370936C0380936D0390936E03B6
:101050001F910F9108951F920F920FB60F921124B6
:101060002F933F938F939F93AF93BF938091B80338
:101070009091B903A091BA03B091BB033091B7032B
:1010800023E0230F2D3720F40196A11DB11D05C0CB
:1010900026E8230F0296A11DB11D2093B70380936C
:1010A000B8039093B903A093BA03B093BB038091A4
:1010B000BC039091BD03A091BE03B091BF03019604
:1010C000A11DB11D8093BC039093BD03A093BE03EB
:1010D000B093BF03BF91AF919F918F913F912F919B
:1010E0000F900FBE0F901F9018951F920F920FB682
:1010F0000F9211242F933F934F935F936F937F939E
:101100008F939F93AF93BF93EF93FF93E0910B0166
:10111000F0910C010995FF91EF91BF91AF919F91D3
:101120008F917F916F915F914F913F912F910F9090
:101130000FBE0F901F9018951F920F920FB60F922F
:1011400011242F933F934F935F936F937F938F93CC
:101150009F93AF93BF93EF93FF93E0910901F091B9
:101160000A010995FF91EF91BF91AF919F918F91E6
:101170007F916F915F914F913F912F910F900FBE93
:101180000F901F901895FC01248131E030933404B6
:101190002093560410923504109257048385682BCF
:1011A00088EF94E00E9418050C946F0E0F931F9324
:1011B000CF938C01C62F0E94C3086C2F6460C801B6
:1011C0000E94C3086C2F6B7FC8010E94C30883EC88
:1011D00090E00197F1F7CF911F910F910895FF9241
:1011E0000F931F93CF93DF931F92CDB7DEB78C0180
:1011F000F62E962F907F692F642BC80149830E9499
:10120000D60880E1F89EB00111244981642BC80101
:101210000F90DF91CF911F910F91FF900C94D60802
:1012200041E00E94EF0881E090E0089540E061E035
:101230000E94EF088BE39FE10197F1F708951F9259
:101240000F920FB60F9211242F933F934F935F93FA
:101250006F937F938F939F93AF93BF93EF93FF937E
:101260008091B900887F803609F49CC068F5883287
:1012700009F45BC090F4803109F454C038F4882339
:1012800009F4F6C0883009F44DC0F6C0883109F47D
:101290004CC0803209F45DC0EFC0803409F468C0EE
:1012A00048F4803309F455C0883309F0E5C08093D1
:1012B0003104D8C0803509F44FC0883509F45DC0C9
:1012C000883409F0D9C0D6C0883909F4C7C0A8F459
:1012D000883709F467C038F4883609F463C080376A
:1012E00009F460C0C9C0883809F4B8C0803909F46D
:1012F0005FC0803809F0C0C05BC0803B09F486C085
:1013000038F4803A09F466C0883A09F47FC0B4C062
:10131000803C09F4A7C0883C09F4A4C0883B09F4C8
:101320008AC0AAC080910E0410C0909130048091B0
:101330002F04981770F5E091300481E08E0F8093B0
:101340003004F0E0E15FFB4F80818093BB0085ECCF
:1013500086C0809331048EC0E091300481E08E0F0E
:10136000809330048091BB00F0E0E15FFB4F80830D
:101370009091300480912F046EC0E091300481E0A0
:101380008E0F809330048091BB00F0E0E15FFB4F53
:1013900080838091320481116DC081E080930D04BF
:1013A00084EA61C083E0809333041092B603CFCF08
:1013B0008091B603803208F051C0E091B60381E01D
:1013C0008E0F8093B6038091BB00F0E0EA56FC4F8D
:1013D0008083BDCF85EC8093BC0010923304809154
:1013E000B603803230F4E091B603F0E0EA56FC4FE9
:1013F00010826091B60370E0E0919403F091950340
:1014000086E993E009951092B60336C084E0809394
:1014100033041092930310929203E0919003F091A1
:101420009103099580919203811105C081E0809319
:10143000920310927003E091930381E08E0F8093EA
:101440009303F0E0E059FC4F80818093BB009091C2
:10145000930380919203981708F479CF85E88093DD
:10146000BC000AC085EC8093BC001092330404C019
:10147000109231040E949004FF91EF91BF91AF91BF
:101480009F918F917F916F915F914F913F912F919C
:101490000F900FBE0F901F9018951092330481E0AB
:1014A0008093320410920D0461E082E10E943A07B9
:1014B00061E083E10E943A07E9EBF0E080818E7FF2
:1014C000808380818D7F808388E48093B80085E469
:1014D0008093BC000895DC01E0E0615038F08D910C
:1014E000E827F0E0EA5FFA4FE491F7CF8E2F0895F6
:1014F000FC0190810180F281E02DF8948181892B9B
:1015000081832281892F809528232283A7E0B0E060
:101510001197F1F7218182238183A3E2B0E0119733
:10152000F1F780817894EFECF0E03197F1F79823B0
:1015300081E009F480E00895FC0190810180F2814E
:10154000E02D892F809560FF12C0F89422818223BC
:1015500082838181892B8183A3E2B0E01197F1F727
:101560008281982B9283789487ED90E011C0F89453
:101570002281822382838181892B8183AFEFB0E036
:101580001197F1F78281982B928378948FE090E005
:101590000197F1F70895CF92DF92EF92FF920F93A8
:1015A0001F93CF93DF931F92CDB7DEB76C01E62E6A
:1015B00008E010E0FF24F39461E08F2D8E2109F400
:1015C00060E0C60149830E949C0AFF0C015011098A
:1015D00049810115110581F7411115C0F894D60113
:1015E0001196ED91FC91129791818C9180958923B0
:1015F00081831196ED91FC91129792818C91809547
:101600008923828378940F90DF91CF911F910F915E
:10161000FF90EF90DF90CF900895CF92DF92EF92FE
:10162000FF920F931F93CF93DF931F92CDB7DEB737
:101630008C01F62E40E065E579830E94CB0ACF2C21
:101640007981D72E760188E0E80EF11CF6016191D0
:101650006F0140E0C8010E94CB0ACE14DF04B1F74D
:101660000F90DF91CF911F910F91FF90EF90DF903E
:10167000CF900895FC0190810180F281E02DF894D3
:101680008181292F20958223818378948DE743E0FF
:1016900050E0815021F1DA011197F1F730813923BF
:1016A000C1F3F8948281822382838181892B818393
:1016B0007894ABE7B7E01197F1F7F894818128238C
:1016C0002183A3E1B1E01197F1F78081982381E0B4
:1016D00009F080E07894E3E6F6E03197F1F70895B9
:1016E0008EE480937C0062E070E080E090E00E94F5
:1016F000BD0780917A00806480937A0080917A009F
:1017000086FDFCCF809178002091790030E0322F67
:101710002227A901330F660B770B9A01AB01282B07
:1017200060E070E381E190E00E946222CA01B901A9
:101730000895E8982A988EBD0DB407FEFDCF8EB5AA
:101740006EBD0DB407FEFDCF8EB52A9AE89A0895B6
:1017500060E00C94990BCF93C82F81E00E94A80BF6
:10176000837E682F6C2B81E8CF910C94990B80912C
:101770005804853021F48091C403882311F080E05F
:10178000089584E0809358040E94AB0B81E0089593
:1017900088E20E94A80B807521F080E00E94A80BCF
:1017A000F7CF08958627682F62956827062E6695DD
:1017B00066956025062E669560256770082E892F30
:1017C000669507946795902D8627069467959025D2
:1017D00086270895CF9380915804853009F054C02E
:1017E00060E485EA0E94990B84E20E94A80B809332
:1017F0006F037894C8E488E20E94A80B8075D9F33F
:101800008091C40381110FC0E091C003F091C10326
:101810008091C40391E0980F9093C40390915A046F
:10182000E80FF11D908380E00E94A80BE091C003B7
:10183000F091C1039091C40321E0290F2093C403C8
:10184000E90FF11D8083682F8091C2039091C3033B
:101850000E94D20B9093C3038093C2038091C7036D
:10186000833410F0C093C4038091C7032091C40354
:1018700090E0049630E082179307ACF08091C403A7
:10188000883408F4B8CF0FC088E20E94A80B83FF09
:101890000AC084E0809358040E94AB0B60E885EA9C
:1018A000CF910C94990BCF910895CF934093C70398
:1018B000FB0120E030E050E02417350744F4D90163
:1018C000A853BC4F91919C932F5F3F4FF5CF86FD5E
:1018D00004C0807E90915904890F8093C603609163
:1018E0005A048FEF9FEF0E94D20B9093C303809313
:1018F000C2039091C7038EEF891B809358040E9406
:10190000C80B8CE00E94AB0B60E085EA0E94990B4B
:10191000809158048330DCF588E20E94A80B87FD93
:10192000F7CF8091580487FF1BC09091C703809127
:101930005804E091C003F091C103E90FF11DE80FD5
:10194000F11D87FDFA95C3816C2F8091C2039091A0
:10195000C3030E94D20B9093C3038093C2030DC0B4
:1019600080915804882329F0813031F4C091C30359
:1019700004C0C091C20301C0CAEA6C2F80E80E9473
:10198000990B809158048F5F80935804C1CFCF91F9
:1019900008950F931F93CF938C0164E075E08BE55E
:1019A00094E00E9455058091C6038F7190E00E94DB
:1019B000700D62E075E08BE594E00E945505C0E093
:1019C0002C2F30E020173107A4F4F901E853FC4F25
:1019D000408150E060E070E02AE08BE594E00E94F6
:1019E0008E0560E075E08BE594E00E945505CF5FC1
:1019F000E7CF6EEF74E08BE594E00E94550580918F
:101A00006F0390E0959587959195819591090E9436
:101A1000700D6CEF74E08BE594E00E945505CF915A
:101A20001F910F910C945B0D1F93CF93DF93EC01EB
:101A3000FE011491112371F01A3029F46DE08BE549
:101A400094E00E944E05612F8BE594E00E944E05C4
:101A50002196EECFDF91CF911F91089561E089E04B
:101A60000E943A0769E170E080E090E00E94BD07C3
:101A700060E089E00E943A0761E089E00E943A074D
:101A800069E170E080E090E00E94BD0760E089E0DD
:101A90000C943A071F920F920FB60F9211248F9356
:101AA00080916A038F5F80936A038F910F900FBEBE
:101AB0000F901F90189560EB71E08BE594E00C940B
:101AC0007905CF93DF93BC018BE594E00E94550527
:101AD000EC010E945B0D8C0F9D1FDF91CF9108954B
:101AE000CF92DF92EF92FF92CF93DF936C01990F29
:101AF000EE08FF08F7FE1BC06DE28BE594E00E9444
:101B00004E05EC0144275527BA014C195D096E09B1
:101B10007F092AE08BE594E00E948E058C0F9D1FC3
:101B2000DF91CF91FF90EF90DF90CF9008952AE062
:101B3000B701A6018BE594E0DF91CF91FF90EF9084
:101B4000DF90CF900C948E05CF92DF92EF92FF92B0
:101B50000F931F93CF93DF93C82F162FD42FEFEF40
:101B6000E60FE33028F4F0E0E55EFE4FA08101C00F
:101B7000A0E0B0E020E836E948E950E00E94A52264
:101B80006B017C01A12FB0E020E039E04DE350E093
:101B90000E94A522DC01CB018C0D9D1DAE1DBF1D39
:101BA000BC01CD0122E0660F771F881F991F2A957F
:101BB000D1F729E03DE340E050E00E944022DA0105
:101BC000C90136E0880F991FAA1FBB1F3A95D1F7AC
:101BD0008093170590931805A0931905B0931A05E3
:101BE000D0935A04DC2FDF71D093590464E170E084
:101BF00080E090E00E94BD07DD2369F08AEE9BE063
:101C000090930A0180930901809169008360809319
:101C10006900E89A07C0E8988FE894E090930A0179
:101C2000809309012A9A229A2A9A84B18C6284B9F3
:101C300080E58CBD8DB581608DBD6AEA8FEA0E941A
:101C4000990B8FE20E94A80B8A3AB9F765E58FEAF3
:101C50000E94990B8FE20E94A80B8535B9F70AE123
:101C600016E0F8018491882341F0319664918068F0
:101C70000E94990B0E5F1F4FF4CF60915A0481EBC5
:101C80000E94990BC0901705D0901805E090190597
:101C9000F0901A05B7018827992787E80E94990BC9
:101CA00099278F2D7E2D6D2D88E80E94990B6C2D24
:101CB00089E80E94990B84E080935804C0931B0527
:101CC0008C2FDF91CF911F910F91FF90EF90DF90BC
:101CD000CF900895BC018BE594E00C947905209198
:101CE000570490915604213208F04AC08091330481
:101CF0008111FCCF32E03093330431E03093320471
:101D00003FEF309331041092300420932F04A6E368
:101D1000B4E04FE054E0FA013E2F341B321718F4C0
:101D20003D913193F9CF10920E0420910E04990F3A
:101D3000922B90930E0490910D04913061F41092C7
:101D40000D0490910E049093BB009091BC0093FD04
:101D5000F8CF95EC01C095EE9093BC0090913304C0
:101D60009230E1F3909131049F3F79F080913104FA
:101D7000803241F080913104803331F084E005C03D
:101D800081E003C082E001C083E01092350410922C
:101D90005704109234040895CF93DF93CDB7DEB784
:101DA00028970FB6F894DEBF0FBECDBF9C0188E028
:101DB000E3E1F1E0DE01119601900D928A95E1F7E1
:101DC000F9018085811102C09FEF01C091E0FE0101
:101DD0003196E90FF11DE90FF11D6081606840E067
:101DE000C90128960FB6F894DEBF0FBECDBFDF91B4
:101DF000CF910C94EF08462F50E060E070E02AE0AD
:101E00000C948E05CF93DF93AB01BC0122E08BE5F0
:101E100094E00E94D705EC010E945B0D8C0F9D1F82
:101E2000DF91CF91089580915804843019F0853066
:101E300031F133C01092C7031092C40360915A0469
:101E40008FEF9FEF0E94D20B9093C3038093C20346
:101E500085EC93E09093C1038093C00385E0809369
:101E600058040E94C80B60E885EA0E94990B80E143
:101E70000E94AB0B62E08EE90E94990B0EC080912C
:101E8000C7032091C40390E0049630E082179307C3
:101E90003CF08091C403883418F48FEF9FEF0895CD
:101EA00084E0809358040E94AB0B8091C703833475
:101EB00018F081E090E008958091C2039091C303EF
:101EC000892BB9F78091C60386FF11C03091590460
:101ED0003F3169F02091C6032F7181E090E0231318
:101EE00002C080E090E0919581959109089580E08D
:101EF00090E00895AF92BF92CF92DF92EF92FF925F
:101F00000F931F93CF93DF938B01BC018091090541
:101F100090910A050E940D0B40E06EEB809109053F
:101F200090910A050E94CB0AE801680189E0C80E79
:101F3000D11CA0900905B0900A0588E0E82EF12C8C
:101F400001E010E0C5010E94780A8111102B000FFA
:101F500081E0E81AF108B1F71993CC15DD0549F7CE
:101F60008091090590910A050E943A0B91E0813019
:101F700009F090E0892FDF91CF911F910F91FF9091
:101F8000EF90DF90CF90BF90AF9008950F931F9385
:101F9000CF93DF938C01EB018091090590910A05A5
:101FA0000E943A0B882369F0BE01C8010E947A0F93
:101FB000882339F068E0CE010E946B0A91E0288501
:101FC000821390E0892FDF91CF911F910F91089597
:101FD000AF92BF92CF92DF92EF92FF920F931F9337
:101FE000CF93DF931F92CDB7DEB75C01D62EE72EDD
:101FF000FC018585811105C0C5010E943A0B811144
:1020000006C0F50113861586148680E065C040E0A1
:1020100060EFC5010E94CB0A01E0F12CC12C11E058
:10202000C5010E94780A682FC50169830E94780A59
:102030006981613019F48130B9F433C04F2D50E01B
:1020400068131BC0F5018385181730F4E40FF51FE2
:102050008381802349F402C0181731F060E0193001
:1020600058F4F501148708C0F501EF0DF11D8381C7
:10207000802B838361E009C0C12EF501E40FF51FB9
:102080009381802F809589238383C5010E949C0AB8
:102090001F5F000F11F4F39401E0F7E0FF1508F063
:1020A000BFCF113408F4ADCFF501C386C11002C013
:1020B00081E08587F5018381882309F4A2CFD501CA
:1020C0001396ED2DFE2D9501255F3F4F8D91819348
:1020D000A217B307D9F781E00F90DF91CF911F913D
:1020E0000F91FF90EF90DF90CF90BF90AF90089549
:1020F000CF93DF93CDB7DEB729970FB6F894DEBF45
:102100000FBECDBFFC0120812031D1F0BE016F5F39
:102110007F4F0E94C60F882389F08D818F3361F035
:1021200020F48F3159F489E00CC08F3519F08F37C6
:1021300039F004C08BE005C08AE003C080E001C034
:102140008CE029960FB6F894DEBF0FBECDBFDF91AD
:10215000CF9108952F923F924F925F926F927F920C
:102160008F929F92AF92BF92CF92DF92EF92FF92A7
:102170000F931F93CF93DF93CDB7DEB7A2970FB620
:10218000F894DEBF0FBECDBF9AA389A30E94700B47
:10219000698B7A8B8B8B9C8B0E94F7074B015C01C0
:1021A00069A07AA028E5620E711CA9A1BAA1549673
:1021B0008C910E94A607F30191838083BC01990F43
:1021C000880B990B0E94AA206B017C012DEC3CEC42
:1021D0004CE054E40E94FB1F87FF0BC011E026E691
:1021E00036E646EE53E4C701B6010E945A2118169E
:1021F0000CF010E00E94F707DC01CB018819990967
:10220000AA09BB09813D9740A105B10510F411232E
:1022100061F20E94F7076D8B7E8B8F8B988F00E0A9
:1022200010E01A82198229A13AA1205C3F4F3A8F0F
:10223000298F49A15AA14C5B5F4F5C874B8789A1CD
:102240009AA1885B9F4F9C8F8B8FA9A1BAA1A45B99
:10225000BF4FBE87AD87E9A1FAA1E05BFF4FFE8FBC
:10226000ED8F29A13AA12C5A3F4F388B2F8749A1D6
:102270005AA1465A5F4F5E834D8329A03AA05BE581
:10228000250E311C89A19AA1885A9F4F98A38F8F40
:102290000E94F707DC01CB012D893E894F89588DBB
:1022A000821B930BA40BB50B803D9740A105B10594
:1022B00008F4DAC049895A89BA01550F880B990B7D
:1022C0000E94AA2020E030E04AE754E40E94002067
:1022D00020E030E040E85AE30E945F212B013C01FE
:1022E000A9A1BAA158962D913D914D915C915B9712
:1022F0000E945F214B015C01E981FA81BF0180E00E
:1023000090E00E94A8206B017C0129A03AA0F4E48F
:102310002F0E311C9B01AC01D1016D917D918D91EE
:102320009C910E9400200E94D2219B01AC01C5011A
:10233000B4010E945F2169837A838B839C83E9A126
:10234000FAA16487758786879787248D358D468D9A
:10235000578DC301B2010E945F212B013C0109A1ED
:102360001AA1045B1F4FA7019601D8016D917D91C1
:102370008D919C910E9400200E94D2219B01AC0172
:10238000C301B2010E945F216D837E838F83988792
:10239000E9A1FAA1608B718B828B938BA3019201CF
:1023A000C501B4010E945F21A9A0BAA0F4E5AF0E57
:1023B000B11CD5012D913D914D915C910E945F2101
:1023C000A70196010E9400206B017C01E9A1FAA1FE
:1023D00060837183828393832D813E814F815885F1
:1023E00069817A818B819C810E945F219B01AC0174
:1023F000A9A1BAA114966D937D938D939C93179781
:10240000C701B6010E940020E9A1FAA16087718787
:1024100082879387D1011D921D921D921C92139762
:10242000F8011082118212821382D5011D921D9231
:102430001D921C921397A2960FB6F894DEBF0FBEA2
:10244000CDBFDF91CF911F910F91FF90EF90DF9063
:10245000CF90BF90AF909F908F907F906F905F9044
:102460004F903F902F900895E981FA813196FA8339
:10247000E983E9A1FAA184A595A5A6A5B7A580A79A
:1024800091A7A2A7B3A784890E94A607A9A1BAA170
:1024900095969C938E93949756968C910E94A6073E
:1024A0003C01E9A1FAA197A386A324A135A13A870B
:1024B0002987B901330F880B990B0E94AA206B0161
:1024C0007C01A9A1BAA1D4968D909D90AD90BC90AD
:1024D000D797A50194010E948E1F20E030E040E8CC
:1024E0005AE30E945F219B01AC01C501B4010E9427
:1024F0008F1F9B01AC01E9A1FAA164AB75AB86AB60
:1025000097ABC701B6010E948E1F4B015C01A9A1C8
:10251000BAA19C966D937D938D939C939F97B301E5
:10252000770C880B990B0E94AA206B017C01E9A112
:10253000FAA140AC51AC62AC73ACA30192010E9411
:102540008E1F20E030E040E85AE30E945F219B01AB
:10255000AC01C301B2010E948F1F9B01AC01A9A174
:10256000BAA1D8966D937D938D939C93DB97C70109
:10257000B6010E948E1F6B017C01E9A1FAA160AB3C
:1025800071AB82AB93ABA5019401C501B4010E946C
:102590005F219B01AC01A98DBA8D6D937D938D93C5
:1025A0009C931397EB85FC85608171818281938177
:1025B0000E948F1FAB85BC856D937D938D939C93FB
:1025C0001397A7019601C701B6010E945F219B01E5
:1025D000AC01EB8DFC8D6083718382839383AD8529
:1025E000BE856D917D918D919C910E948F1FED858F
:1025F000FE856083718382839383A9A1BAA1989693
:102600004D905D906D907C909B97A3019201C501C8
:10261000B4010E948E1FE9A1FAA120A131A142A11B
:1026200053A10E945F219B01AC01C301B2010E9432
:102630008F1FA9A1BAA1DC966D937D938D939C9376
:10264000DF97A70196010E945F219B01AC01ED8DF0
:10265000FE8D6083718382839383AF85B8896D918A
:102660007D918D919C910E948F1FEF85F8896083E9
:10267000718382839383D1018C91ED81FE8180836C
:10268000AF8DB8A18D919C91E985FA858E179F0732
:1026900024F4E1E0D101EC9302C0D1011C92E98164
:1026A000FA81319729F4D1018C91ED81FE818083EB
:1026B000AD81BE819C91F1018081981711F00F5F6F
:1026C0001F4F0431110508F0F5CDE2CD2F923F9256
:1026D0004F925F926F927F928F929F92AF92BF9232
:1026E000CF92DF92EF92FF920F931F93CF93DF93DE
:1026F00000D000D0CDB7DEB79C838B830E94700BD7
:102700006B017C0108EC15E08B819C81885B9F4FFD
:102710009A8389832B803C809CE4290E311CEB81B9
:10272000FC8186890E94A607EB81FC8197A386A382
:10273000BC01990F880B990B0E94AA204B015C01E8
:10274000EB81FC8140AC51AC62AC73ACA301920153
:102750000E948E1F20E030E040E85AE30E945F2193
:102760009B01AC01C301B2010E948F1F9B01AC0110
:10277000EB81FC8160AF71AF82AF93AFC501B40153
:102780000E948E1FEB81FC8160AB71AB82AB93AB7F
:102790009B01AC010E945F21E981FA816083718312
:1027A00082839383F10120813181428153810E9490
:1027B0008F1FF1016083718382839383015011091C
:1027C00009F0ADCF20E030E049EB54E40E94002056
:1027D0000E94D2214B015C01B601DD0C880B990BE4
:1027E0000E94AA2020E030E04AE754E40E94002042
:1027F00020E030E040E85AE30E945F21EB81FC8159
:10280000248D358D468D578D0E945F21A501940141
:102810000E945F21EB81FC81608B718B828B938B9B
:10282000F10110821182128213820F900F900F908B
:102830000F90DF91CF911F910F91FF90EF90DF905C
:10284000CF90BF90AF909F908F907F906F905F9050
:102850004F903F902F900895CF93DF93CDB7DEB781
:10286000A6970FB6F894DEBF0FBECDBF789484B59F
:10287000826084BD84B5816084BD85B5826085BD7C
:1028800085B5816085BD80916E00816080936E000A
:1028900010928100809181008260809381008091FC
:1028A00081008160809381008091800081608093AD
:1028B00080008091B10084608093B1008091B0006D
:1028C00081608093B00080917A00846080937A0068
:1028D00080917A00826080937A0080917A00816092
:1028E00080937A0080917A00806880937A001092B9
:1028F000C10064E670E080E090E00E94BD07809136
:102900001A03882371F080E090E0A2E0B3E48093A2
:10291000160390931703A0931803B09319038EE640
:102920000DC086E696E6A0E8B3E480931603909384
:102930001703A0931803B093190386EE8093150331
:1029400061E089E00E946A0761E089E00E943A073D
:1029500062E088E00E946A0761E085E00E946A0701
:1029600060E085E00E943A0762E083E00E946A0727
:10297000E0916B04F0916C0482E08083E091670445
:10298000F09168041082E0916904F0916A0483E395
:10299000808310927304E0916F04F091700486E0DC
:1029A0008083E0916D04F0916E048081806180836A
:1029B000E0916D04F0916E04808188608083E091E5
:1029C0006D04F0916E04808180688083E0916D04D5
:1029D000F0916E0480818F7D808365EB70E08BE5E4
:1029E00094E00E94550568EB7EE185E390E40E9447
:1029F000020F8FE990E00E94610D84E990E00E944F
:102A0000610D6AE070E080E090E00E94BD074091B7
:102A1000070160910601809105010E94A40D0AE062
:102A200010E01093400200933F020E94B70BC82EA3
:102A300081110BC00E94130F9093C1018093C001BC
:102A40008091C0019091C101F0CF48E16FE372E045
:102A500080E00E94550C64E670E080E090E00E9407
:102A6000BD0701501109E8F680915804843064F4E0
:102A700083B7817F8C6083BF83B7816083BF889574
:102A800083B78E7F83BFF0CF1092400210923F0237
:102A9000E0910905F0910A05138615861486DF0179
:102AA0001B9633961E92AE17BF07E1F710920805EA
:102AB00011E0BE01675E7F4F8091090590910A0584
:102AC0000E94E80F882309F459C067E0CE014996B7
:102AD0000E946B0A98A18913ECCF809104058111A3
:102AE00027C08091090590910A050E943A0BBE010A
:102AF000675E7F4F8091090590910A050E940D0B3A
:102B000040E064EB8091090590910A050E94CB0A90
:102B10008091090590910A050E94780A082F8091FA
:102B2000090590910A050E943A0B002309F44BC055
:102B30008091090590910A050E943A0B882339F08B
:102B4000BE016F5F7F4FCE0149960E947A0F0091C0
:102B50000505CE0149960E947810801718F48091DF
:102B6000050504C0CE0149960E94781080930505A2
:102B7000809108058F5F809308059BCFB090080572
:102B8000B0923B026BE0E62E62E0F62E8701D12C7C
:102B9000DB1471F1E0910905F0910A0513861586A1
:102BA0001486DF011B9633961E92AE17BF07E1F71E
:102BB000A12CB8018091090590910A050E94E80FA7
:102BC000811104C015C010930405B2CFAD100DC023
:102BD00067E0C8010E946B0AD80117969C9189137F
:102BE00004C0D394085F1F4FD3CFA394DA1408F71F
:102BF000D12C8E010F5F1F4F8FE7A82EDB1409F435
:102C00006FC0B801C7010E94C60F882309F463C0D2
:102C1000F7018081803109F45EC0AD8280910905A1
:102C200090910A050E943A0BB70180910905909195
:102C30000A050E940D0B40E06EE480910905909119
:102C40000A050E94CB0A40E06B81809109059091B2
:102C50000A050E94CB0A40E06C81809109059091A1
:102C60000A050E94CB0AD7018C91803141F040E0E7
:102C70006D818091090590910A050E94CB0A80918F
:102C8000090590910A050E943A0BB7018091090548
:102C900090910A050E940D0B4091040568E4809113
:102CA000090590910A050E94CB0A64E170E080E07A
:102CB00090E00E94BD0780910405882331F06AE00E
:102CC00070E080E090E00E94BD078091090590913E
:102CD0000A050E943A0BD394B8E0EB0EF11C8ECF9C
:102CE000D11003C010923C0209C081E080933C02E5
:102CF000E6E0ED1518F486E080933B021092B501F2
:102D00001092B40110923504109257040E944D0A9B
:102D100080910001FF24F394F092340480935604D0
:102D200010923504109257040E946F0E8823C9F048
:102D300080910201F092340480935604109235047D
:102D4000109257040E946F0E882381F06AE571E0AB
:102D50008BE594E00E9479050E945B0D80E090E095
:102D60001EC050E0E52E51E0F52E04C042E0E42EF6
:102D700041E0F42E88E691E00E946A0ED7014D9161
:102D80005C91052E000C660B770B20E18BE594E03F
:102D90000E948E050E945B0DF701808191818093D6
:102DA000BB019093BC011C8E1B8E46E451E05A8FF0
:102DB000498F8D8F20E12AA392E09BA31CA21C8245
:102DC0001B825A8349838D832A879B871C86109296
:102DD000B5011092B40110923504109257040E946C
:102DE0004D0A1E828B85823010F098E09E83898781
:102DF00062E370E080E090E00E94BD076C85C8014E
:102E00000E94C30868EE73E080E090E00E94BD0776
:102E100060E3C8010E94D6083BE4E32E36E4F32EBB
:102E2000C7010197F1F760E3C8010E94D608C70106
:102E30000197F1F760E3C8010E94D60883E592E0AC
:102E40000197F1F760E2C8010E94D6086E816062C6
:102E500040E0C8010E94EF0884E08F8340E06CE00E
:102E6000C8010E94EF08C8010E94160982E0888705
:102E700040E066E0C8010E94EF0840E062E0C8015F
:102E80000E94EF088BE39FE10197F1F788E08C87C0
:102E900060E0C8010E94C3086CEC70E0C8010E94A9
:102EA000550522E048EB5EE165E370E4C8010E944D
:102EB000D705C8010E94CC0E6EEB70E0C8010E94DD
:102EC000550560ED77E080E090E00E94BD0781E06D
:102ED0000E94A607181619064CF481E08093570249
:102EE00080913D028F5F80933D0202C01092570295
:102EF00082E00E94A607181619064CF481E0809320
:102F00003E0280913D028F5F80933D0202C010928D
:102F10003E0260E089E00E943A0761E08EE00E9494
:102F20006A0761E08EE00E946A0761E08EE00E941D
:102F30003A0761E08EE00E946A0760E08EE00E943E
:102F40003A0760E08EE00E946A0764EF71E080E07B
:102F500090E00E94BD0724EFE22E26E0F22E812CA5
:102F6000912C540180E00E94A607DC01B2509D0123
:102F70000E948722860E971EA81EB91EF1E0EF1A46
:102F8000F10881F7C501B4010E94A82020E030E8D3
:102F90004EED54E40E9400200E94D22122E538EB3D
:102FA0004EE55FE30E945F216093B7017093B80123
:102FB0008093B9019093BA0120E030E044EB52E4F1
:102FC0000E945A21181624F481E08093580202C00E
:102FD000109258028091BB011C821B8226E431E0D2
:102FE0003A8329838D8380E18A8782E08B871C86E0
:102FF000C8010E94160988E08C8760E0C8010E9421
:10300000C30864E972E08BE594E00E9455056DEC1D
:103010007CEC85EB92E40E94020F69E872E08BE59C
:1030200094E00E9455056DEC7CEC85EB92E40E94E7
:10303000020F6FE772E08BE594E00E945505409126
:10304000B7015091B8016091B9017091BA0122E0C5
:103050008BE594E00E94D7058DE792E00E94610D18
:1030600080915802882309F440C06CE672E0C801E0
:103070000E94550581E492E00E94610D80911A033F
:10308000882331F065E372E08BE594E00E945505FA
:103090006EE272E08BE594E00E94550560911603A4
:1030A0007091170380911803909119030E94020FE9
:1030B00067E272E08BE594E00E945505609115038C
:1030C0008BE594E00E94FB0E85E292E00E94610D88
:1030D00067E172E08BE594E00E9455056AE979E9C1
:1030E00089ED9FE30E94020F21C067E072E0C801F2
:1030F0000E94550589ED91E00E94610D80911A03AF
:10310000882321F080ED91E00E94610D60EC71E078
:103110008BE594E00E945505609115038BE594E0E2
:103120000E94FB0E8EEB91E00E94610DC8010E948F
:10313000CC0E64EB71E0C8010E94550580913D0200
:10314000811107C085EA91E00E94610D6DE971E08F
:1031500017C080915702882349F081E991E00E94CD
:10316000610D6CE871E0C8010E94550580913E0236
:10317000882349F080E891E00E94610D6CE771E0DE
:10318000C8010E94550560ED77E080E090E00E9464
:10319000BD0780913C02882319F164E771E08BE55B
:1031A00094E00E94550560913B028BE594E00E94FB
:1031B000FB0E8BE691E00E94610DC8010E9416098A
:1031C00060E671E0C8010E94550560913B02C801AC
:1031D0000E94FB0EC8010E94CC0E63E571E016C090
:1031E00080E491E00E94610DC8010E94160965E328
:1031F00071E0C8010E94550560913B02C8010E9420
:10320000FB0EC8010E94CC0E68E271E0C8010E946A
:10321000550560ED77E080E090E00E94BD07C801B1
:103220000E9416096BE171E0C8010E945505C801B2
:103230000E94CC0E60E171E0C8010E94550581E05A
:1032400091E00E94610D6BEF70E08BE594E00E94CD
:103250005505609105018BE594E00E94FB0E64EF3B
:1032600070E08BE594E00E94550580910601813065
:1032700031F46DEE70E08BE594E00E94550580918D
:103280000601823031F466EE70E08BE594E00E9436
:10329000550580910601833031F46FED70E08BE5C8
:1032A00094E00E94550565ED70E08BE594E00E9486
:1032B00055058090070190900801092C000CAA0880
:1032C000BB08B7FE0EC06DE28BE594E00E944E0590
:1032D00044275527BA01481959096A097B092AE088
:1032E00003C02AE0B501A4018BE594E00E948E059D
:1032F0000E945B0D8FEC92E00E94140D64E170E07F
:1033000080E090E00E94BD0783E098E090930C017C
:1033100080930B0180916900837F886080936900AE
:10332000E99A109253021092540210925502109290
:10333000560281E090E09093D0028093CF024DEC52
:103340005CEC65EB72E44093D5025093D602609337
:10335000D7027093D80280E090E0A0E0B4E48093BC
:10336000F1029093F202A093F302B093F40222E0F0
:1033700030E03093740220937302409379025093AB
:103380007A0260937B0270937C0280939502909303
:103390009602A0939702B09398022091580222239C
:1033A00009F444C08090160390901703A09018036E
:1033B000B09019031092CE021092CD028092D102E9
:1033C0009092D202A092D302B092D4024AE959E973
:1033D00069ED7FE34093D9025093DA026093DB02F8
:1033E0007093DC028093ED029093EE02A093EF02C3
:1033F000B093F002109272021092710280927502E4
:1034000090927602A0927702B092780240937D0269
:1034100050937E0260937F027093800280939102AA
:1034200090939202A0939302B0939402412C512C5A
:10343000612C84E4782E98E1292E200E0E94F70753
:1034400060931B0370931C0380931D0390931E03D2
:1034500080911A03882371F020E030E042E053E4C9
:1034600020931603309317034093180350931903C6
:103470008EE60DC086E696E6A0E8B3E480931603D8
:1034800090931703A0931803B093190386EE8093CB
:1034900015038091160390911703A0911803B09122
:1034A00019031092CE021092CD028093D102909314
:1034B000D202A093D302B093D4022AE939E949EDAC
:1034C0005FE32093D9023093DA024093DB025093FA
:1034D000DC024092ED025092EE026092EF02709296
:1034E000F002109272021092710280937502909312
:1034F0007602A0937702B093780220937D023093F6
:103500007E0240937F02509380024092910250923B
:1035100092026092930270929402E7EAF2E0849140
:10352000E5E6F6E0F490E1E5F6E0E490EE2071F0F7
:1035300081110E941107EE2DF0E0EE0FFF1FE15CFC
:10354000F94FA591B4918C91F82211F461E001C07A
:1035500060E085E00E943A078BE594E00E94C0039A
:10356000892B09F428C18BE594E00E949E0390ED1D
:10357000980F9A30B0F44091BE015091BF019AE08B
:10358000949F9001959F300D112420533109A9017A
:10359000480F511D87FD5A955093BF014093BE01BE
:1035A00008C18C3281F4E091BD01E63408F0FDC021
:1035B00081E08E0F8093BD01F0E0EE53FE4F8091CD
:1035C000BE018083F2C081320CF4EDC0482F082E7A
:1035D000000C550B660B770BFA01E156F109E63149
:1035E000F10508F07BC0EC5CFF4F0C9481228091C8
:1035F000BE019091BF01009739F080930501409181
:103600000701609106011EC08091BE01843031F037
:10361000883031F0893031F060E005C061E003C0EE
:1036200062E001C063E0862F90E09093BF01809339
:10363000BE01662309F456C060930601409107015C
:10364000809105010E94A40D4DC04091BE01809162
:10365000BF01409307018093080160910601F0CFFC
:103660008091BE019091BF010097E1F181309105F9
:1036700019F410921A0336C00297A1F581E08093E5
:103680001A0330C081E02091BE013091BF01232B8D
:1036900009F480E08093040125C068ED74E08BE5B7
:1036A00094E00E94550522E047E656E662EE71E49A
:1036B0008BE594E00E94D70566ED74E08BE594E01D
:1036C0000E9455050FC080930A028091BD0180932E
:1036D00009028091BE018093080204C08FEC92E041
:1036E0000E94140D6DEC72E08BE594E00E9455058C
:1036F000609105016F71605C8BE594E00E944E055E
:103700006AEC72E08BE594E00E945505809105011A
:103710008F7190E00E94700D67EC72E08BE594E091
:103720000E94550580910701909108010E94700D3B
:1037300063EC72E08BE594E00E94550580910601F0
:10374000813039F0823041F0833049F080E090E000
:1037500008C081EB91E005C084E693E002C083E9F4
:1037600093E00E94700D6EEB72E08BE594E00E9496
:1037700055056BEB72E08BE594E00E945505809156
:10378000040190E00E94700D65EB72E08BE594E01F
:103790000E94550580911A0390E00E94700D83EB02
:1037A00092E00E94610D1092BD011092BF01109233
:1037B000BE010E942E0D0E94130F9093C1018093B1
:1037C000C0018091C0019091C101019649F18091A1
:1037D000C0019091C101892BA1F464EE74E08BE5E6
:1037E00094E00E9455058091C70390E00E94C90CA7
:1037F0008091C60385FF16C08091C60387FFD7C29C
:1038000011C0809104018111E2C261EE74E08BE588
:1038100094E00E94550584E190E00E94C90CD7C253
:10382000332019F00E942E0D3C2C80910A0288232F
:10383000C1F10E94B70B8823A1F161E089E00E94E9
:103840003A0768EC70E080E090E00E94BD0760E01D
:1038500089E00E943A078BEE94E00E94140D40919B
:10386000090250E060E070E02AE08BE594E00E94FD
:103870008E0587EE94E00E94140D80910A02813635
:1038800009F4A7C280E090910802992311F0906496
:10389000892B4091090262EC71E00E94550C109254
:1038A0000A0280901B0390901C03A0901D03B0900F
:1038B0001E0381E688168AEE98068FEFA806B806E2
:1038C00040F04091070160910601809105010E943E
:1038D000A40D8091590290915A02A0915B02B0917F
:1038E0005C02881A990AAA0ABB0A99E8891693E128
:1038F0009906A104B10408F457C261E089E00E946E
:103900003A0762E370E080E090E00E94BD0760E06B
:1039100089E00E943A07F090580280915702FF20F8
:1039200051F1882309F444C089EB92E00E94AA1067
:103930006091B9027091BA028091BB029091BC0271
:103940000E9472207093400260933F0220E030E0BA
:1039500048EC52E46091C5027091C6028091C702A2
:103960009091C8020E945F210E94722070934602CB
:10397000609345021DC0882309F445C089EB92E09D
:103980000E9466134B015C016091150370E080E0BA
:1039900090E00E94AA209B01AC01C501B4010E94E5
:1039A0005F210E9472207093400260933F022BC0FF
:1039B00080913E02882339F18DE592E00E94AA10A1
:1039C00060915D0270915E0280915F029091600251
:1039D0000E947220709342026093410220E030E026
:1039E00048EC52E46091690270916A0280916B0226
:1039F00090916C020E945F210E9472207093460297
:103A0000609345021DC080913E028823C9F08DE578
:103A100092E00E9466134B015C016091150370E017
:103A200080E090E00E94AA209B01AC01C501B40196
:103A30000E945F210E9472207093420260934102B3
:103A400020913F02309140028091410290914202C8
:103A5000820F931F909344028093430280913D0212
:103A6000F1100DC0882329F180911503A4E68A9FE7
:103A7000C001112490934602809345021AC081111F
:103A800018C089EB92E00E94AA1020E030E048ECD8
:103A900052E46091C5027091C6028091C702909174
:103AA000C8020E945F210E947220709346026093B8
:103AB000450280913C02882309F4B4C08091090535
:103AC00090910A050E943A0B40E06CEC8091090548
:103AD00090910A050E94CB0A4091040564E480910C
:103AE000090590910A050E94CB0A8091060588235A
:103AF000A9F0E0910505E950E33040F4F0E0EE0F65
:103B0000FF1FE35FFE4F6081718102C06EEE72E0C5
:103B1000072E000C880B990B0E94BD07D12C8091B9
:103B20003B02D81608F07EC0ED2CF12CC701F3E063
:103B3000880F991FFA95E1F7FC01E55FFD4F5F01E2
:103B4000BE016F5F7F4FCF010E94C60F882359F1DE
:103B50006981F8E06F9FB00111242A8130E0322F93
:103B60002227330F330F330F262B372BD5018C91A0
:103B70008031E1F4688570E08F81FB01E81BF10979
:103B8000CF019695982F8827979587950E942C228C
:103B900060517109207F53E0220F331F5A95E1F7DE
:103BA000620F731F04C060E874EE01C0B901613890
:103BB000F4EE7F0764F1072E000C880B990B0E942E
:103BC000AA2020E030E040E05CE30E945F214B014E
:103BD0005C0120E030E04AEF52E40E94FB1F87FFC7
:103BE00016C020E030E04CE552ECC501B4010E9463
:103BF0005A21181664F420E030E040E251E4C50197
:103C0000B4010E945F210E9472207EA36DA3F70180
:103C1000EE0FFF1FE95BFD4F2DA13EA131832083F5
:103C2000D3947DCF8091B6018823D1F0F894209170
:103C3000B6018091530290915402A0915502B09127
:103C40005602820F911DA11DB11D809353029093C6
:103C50005402A0935502B09356021092B601789484
:103C600089E791E00E946A0E80913F0290914002A4
:103C70000E94700D8EE791E00E946A0E80914102D1
:103C8000909142020E94700D84E891E00E946A0EB9
:103C90008AE891E00E946A0E8CE891E00E946A0E28
:103CA0008AE891E00E946A0E82E991E00E946A0E21
:103CB00080914502909146020E94700D89E991E041
:103CC0000E946A0E40915302509154026091550235
:103CD000709156022AE08BE594E00E948E05809157
:103CE0003C02811116C088E1EFE3F2E0D8010190B7
:103CF0000D928A95E1F768EF74E08BE594E00E94FD
:103D00005505609105018BE594E00E94FB0E78015A
:103D10001EC0F12C80913B02F81628F781EA91E051
:103D20000E946A0E6F2D8BE594E00E94FB0E8CE7DB
:103D300091E00E946A0EEF2DF0E0EE0FFF1FE95BAD
:103D4000FD4F808191810E94700DF394E3CF66EF67
:103D500074E08BE594E00E945505D7016D917D01DB
:103D60008BE594E00E94FB0E2E10F1CF60EF74E023
:103D70008BE594E00E9455050E945B0D6AE070E0BF
:103D800080E090E00E94BD0780911B0390911C038E
:103D9000A0911D03B0911E038093590290935A0283
:103DA000A0935B02B0935C020E94600447CB8091B9
:103DB000C60386FD0AC08091C6038F71806C40E007
:103DC00060E070E00E94550C2DCD80E8F8CF312CDA
:103DD0002CCD80E258CD10925E0410925D0488EEE6
:103DE00093E0A0E0B0E080935F0490936004A09320
:103DF0006104B093620422E231E030935C042093CA
:103E00005B0425EC30E0309368042093670424ECD5
:103E100030E030936A042093690420EC30E0309362
:103E20006C0420936B0421EC30E030936E042093FB
:103E30006D0422EC30E03093700420936F0426EC84
:103E400030E0309372042093710410927404109245
:103E5000750410927604109277041092FB0410926D
:103E6000FA048093FC049093FD04A093FE04B093A5
:103E7000FF0484E391E09093F9048093F804109296
:103E80002D0510922C0586E491E090932B058093EC
:103E90002A0510922E0510923305109234051092C7
:103EA000350560E084E00E946A07E1E6F6E0E4910F
:103EB000E0931C05EDE4F6E0E491F0E0EE0FFF1F67
:103EC000E15CF94F8591949190931E0580931D05B7
:103ED000109227051092290510922805E7E2F5E0D7
:103EE000129285E0EF31F807D9F787E495E09093D7
:103EF0001605809315058CE195E090930A05809353
:103F00000905109208051092040589E080930505C3
:103F100081E0809306058093070508955058BB27DC
:103F2000AA270E94A61F0C9420210E94122138F07B
:103F30000E94192120F039F49F3F19F426F40C94C3
:103F40000F210EF4E095E7FB0C940921E92F0E9464
:103F5000312158F3BA17620773078407950720F0D9
:103F600079F4A6F50C9453210EF4E0950B2EBA2F9C
:103F7000A02D0B01B90190010C01CA01A00111246F
:103F8000FF27591B99F0593F50F4503E68F11A161B
:103F9000F040A22F232F342F4427585FF3CF4695AC
:103FA00037952795A795F0405395C9F77EF41F16CE
:103FB000BA0B620B730B840BBAF09150A1F0FF0F98
:103FC000BB1F661F771F881FC2F70EC0BA0F621F84
:103FD000731F841F48F4879577956795B795F79574
:103FE0009E3F08F0B0CF9395880F08F09927EE0F09
:103FF0009795879508950E94E52008F481E008953B
:104000000E9414200C9420210E94192158F00E9433
:10401000122140F029F45F3F29F00C94092151113D
:104020000C9454210C940F210E94312168F39923A0
:10403000B1F3552391F3951B550BBB27AA276217A4
:104040007307840738F09F5F5F4F220F331F441FB1
:10405000AA1FA9F335D00E2E3AF0E0E832D09150E5
:104060005040E695001CCAF72BD0FE2F29D0660FD2
:10407000771F881FBB1F261737074807AB07B0E815
:1040800009F0BB0B802DBF01FF2793585F4F3AF01B
:104090009E3F510578F00C9409210C9454215F3F08
:1040A000E4F3983ED4F3869577956795B795F795A1
:1040B0009F5FC9F7880F911D9695879597F9089589
:1040C000E1E0660F771F881FBB1F62177307840725
:1040D000BA0720F0621B730B840BBA0BEE1F88F734
:1040E000E09508950E9479206894B1110C945421B0
:1040F00008950E94392188F09F5798F0B92F992789
:10410000B751B0F0E1F0660F771F881F991F1AF0C2
:10411000BA95C9F714C0B13091F00E945321B1E0B3
:1041200008950C945321672F782F8827B85F39F0B2
:10413000B93FCCF3869577956795B395D9F73EF45B
:1041400090958095709561957F4F8F4F9F4F089503
:10415000E89409C097FB3EF4909580957095619521
:104160007F4F8F4F9F4F9923A9F0F92F96E9BB27D7
:104170009395F695879577956795B795F111F8CF53
:10418000FAF4BB0F11F460FF1BC06F5F7F4F8F4FBE
:104190009F4F16C0882311F096E911C0772321F0B4
:1041A0009EE8872F762F05C0662371F096E8862F4C
:1041B00070E060E02AF09A95660F771F881FDAF7A3
:1041C000880F9695879597F90895990F0008550FD0
:1041D000AA0BE0E8FEEF16161706E807F907C0F08D
:1041E00012161306E407F50798F0621B730B840B95
:1041F000950B39F40A2661F0232B242B252B21F46F
:1042000008950A2609F4A140A6958FEF811D811D0E
:10421000089597F99F6780E870E060E008959FEF48
:1042200080EC089500240A9416161706180609064D
:10423000089500240A94121613061406050608951C
:10424000092E0394000C11F4882352F0BB0F40F4A4
:10425000BF2B11F460FF04C06F5F7F4F8F4F9F4FE4
:10426000089557FD9058440F551F59F05F3F71F066
:104270004795880F97FB991F61F09F3F79F08795CD
:104280000895121613061406551FF2CF4695F1DF56
:1042900008C0161617061806991FF1CF86957105E6
:1042A000610508940895E894BB2766277727CB011A
:1042B00097F908950E94E52008F48FEF08950E9471
:1042C00072210C9420210E94122138F00E941921A1
:1042D00020F0952311F00C9409210C940F21112446
:1042E0000C9454210E94312170F3959FC1F3950FD6
:1042F00050E0551F629FF001729FBB27F00DB11D6A
:10430000639FAA27F00DB11DAA1F649F6627B00DF9
:10431000A11D661F829F2227B00DA11D621F739FE2
:10432000B00DA11D621F839FA00D611D221F749FF0
:104330003327A00D611D231F849F600D211D822F37
:10434000762F6A2F11249F5750409AF0F1F088235E
:104350004AF0EE0FFF1FBB1F661F771F881F91508B
:104360005040A9F79E3F510580F00C9409210C9410
:1043700054215F3FE4F3983ED4F386957795679593
:10438000B795F795E7959F5FC1F7FE2B880F911DB5
:104390009695879597F9089519F416F40C940F21C2
:1043A0000C9417220E943921B8F39923C9F3B6F36C
:1043B0009F57550B87FF0E9425220024A0E640EA64
:1043C000900180585695979528F4805C660F771F6A
:1043D000881F20F026173707480730F4621B730B3D
:1043E000840B202931294A2BA69517940794202560
:1043F00031254A2758F7660F771F881F20F02617A8
:104400003707480730F4620B730B840B200D311D06
:10441000411DA09581F7B901842F9158880F969579
:10442000879508950E94E520880B990B08959F3F7A
:1044300031F0915020F4879577956795B795880F5F
:10444000911D9695879597F9089591505040660F64
:10445000771F881FD2F7089597FB072E16F4009454
:1044600007D077FD09D00E94B02207FC05D03EF4AA
:10447000909581959F4F0895709561957F4F089510
:10448000A1E21A2EAA1BBB1BFD010DC0AA1FBB1F58
:10449000EE1FFF1FA217B307E407F50720F0A21BCA
:1044A000B30BE40BF50B661F771F881F991F1A9437
:1044B00069F760957095809590959B01AC01BD0161
:1044C000CF010895052E97FB1EF400940E947922D7
:1044D00057FD07D00E94402207FC03D04EF40C94F5
:1044E000792250954095309521953F4F4F4F5F4F22
:1044F000089590958095709561957F4F8F4F9F4F50
:104500000895EE0FFF1F0590F491E02D09940E948D
:104510008F22332312F48A1B9B0B0C94A022A29FA0
:10452000B001B39FC001A39F700D811D1124911D87
:10453000B29F700D811D1124911D08950E948F223C
:10454000B7FF0895821B930B08950E948F22A59FA9
:10455000900DB49F900DA49F800D911D112408957E
:10456000AA1BBB1B51E107C0AA1FBB1FA617B70799
:1045700010F0A61BB70B881F991F5A95A9F78095B5
:104580009095BC01CD01089581E090E0F8940C94E1
:06459000C922F894FFCFE0
:1045960027003F00010501D2008F048F045E00BC96
:1045A60000770100004000140054002B565A00000A
:1045B6000000F70364038F033E04C0039E03B203A7
:1045C600000000001805E8044905C204E004D1040F
:1045D600C3040000000010096403490548050000F3
:1045E60000004C056403490548054C4344206E6FA2
:1045F6007420666F756E64004C434420666F756E5A
:104606006420693263203078006374313A002C6389
:1046160074323A002C6374333A0030002C637434DD
:104626003A002C76726D733A002C70756C73653A8D
:10463600002C74006E616E00696E66006F7666000F
:044646000D0A000059
:00000001FF
