:100000000C9478010C9424050C94FD040C94A0012C
:100010000C94A0010C94A0010C941C080C94A00159
:100020000C94A0010C94A0010C94A0010C94A001CC
:100030000C94A0010C94A0010C94A0010C94A001BC
:100040000C94B3040C94A0010C9466030C9440032C
:100050000C94A0010C94A0010C94A0010C94A0019C
:100060000C94A0010C94A0012000205553412000C5
:100070005D005B656D6F6E54782046573A205600E0
:1000800000000000240027002A00000000002500D6
:1000900028002B00000000080002010000030407F4
:1000A0000000000000000000005EBCE2613FDD8354
:1000B000C29C7E20A3FD1F419DC3217FFCA2401E48
:1000C0005F01E3BD3E6082DC237D9FC1421CFEA038
:1000D000E1BF5D0380DE3C62BEE0025CDF81633D28
:1000E0007C22C09E1D43A1FF4618FAA427799BC518
:1000F00084DA3866E5BB5907DB856739BAE4065808
:100100001947A5FB7826C49A653BD987045AB8E6F7
:10011000A7F91B45C6987A24F8A6441A99C7257BE7
:100120003A6486D85B05E7B98CD2306EEDB3510FD7
:100130004E10F2AC2F7193CD114FADF3702ECC92C7
:10014000D38D6F31B2EC0E50AFF1134DCE90722CB7
:100150006D33D18F0C52B0EE326C8ED0530DEFB1A7
:10016000F0AE4C1291CF2D73CA947628ABF5174997
:100170000856B4EA6937D58B5709EBB536688AD487
:1001800095CB2977F4AA4816E9B7550B88D6346A77
:100190002B7597C94A14F6A8742AC896154BA9F767
:1001A000B6E80A54D7896B350A417661696C616299
:1001B0006C6520636F6D6D616E64733A0A20203C3C
:1001C0006E6E3E206920202020202D207365742033
:1001D0006E6F64652049447320287374616E646196
:1001E0007264206E6F64652069647320617265209B
:1001F000312E2E3330290A20203C6E3E20622020F2
:10020000202020202D20736574204D487A206261C3
:100210006E64202834203D203433332C2038203D98
:10022000203836382C2039203D20393135290A2014
:10023000203C6E6E6E3E2067202020202D207365AE
:1002400074206E6574776F726B2067726F757020A3
:100250002852464D3132206F6E6C7920616C6C6F84
:100260007773203231322C2030203D20616E792985
:100270000A202073202020202020202020202D2034
:100280007361766520636F6E66696720746F2045C1
:100290004550524F4D0A202076202020202020203B
:1002A0002020202D2053686F77206669726D77615A
:1002B00072652076657273696F6E0A000000000037
:1002C0002300260029000404040404040404020298
:1002D00002020202030303030303010204081020C5
:1002E0004080010204081020010204081020731845
:1002F00011241FBECFEFD8E0DEBFCDBF27E0A4E0C2
:10030000B4E001C01D92AC33B207E1F714E0A0E005
:10031000B1E0E2EFFCE302C005900D92A430B1071A
:10032000D9F711E0C8E7D1E004C02197FE010E948F
:100330005C1CC737D107C9F70E94DB0F0C94771EEE
:100340000C940000CF92DF92EF92FF920F931F93D5
:10035000CF93DF936C017A018B01C0E0D0E0CE1522
:10036000DF0589F0D8016D918D01D601ED91FC91E9
:100370000190F081E02DC6010995892B11F47E01D1
:1003800002C02196ECCFC701DF91CF911F910F9151
:10039000FF90EF90DF90CF900895FC01538D448D36
:1003A000252F30E0842F90E0821B930B541710F020
:1003B000CF96089501970895FC01918D828D98172D
:1003C00061F0828DDF01A80FB11D5D968C91928D39
:1003D0009F5F9F73928F90E008958FEF9FEF089536
:1003E000FC01918D828D981731F0828DE80FF11DFF
:1003F000858D90E008958FEF9FEF0895FC01918D1A
:10040000228D892F90E0805C9F4F821B91098F7312
:100410009927089588E796E00E94FE0121E0892B44
:1004200009F420E0822F0895FC01848DDF01A80FDC
:10043000B11DA35ABF4F2C91848D90E001968F730C
:100440009927848FA689B7892C93A089B1898C912B
:1004500080648C93938D848D981306C00288F389F1
:10046000E02D80818F7D80830895EF92FF920F931E
:100470001F93CF93DF93EC0181E0888F9B8D8C8D50
:10048000981305C0E889F989808185FD24C0F62E7E
:100490000B8D10E00F5F1F4F0F731127E02E8C8D17
:1004A000E8120CC00FB607FCFACFE889F989808101
:1004B00085FFF5CFCE010E941402F1CF8B8DFE0196
:1004C000E80FF11DE35AFF4FF0820B8FEA89FB8999
:1004D0008081806207C0EE89FF896083E889F9899D
:1004E00080818064808381E090E0DF91CF911F91D3
:1004F0000F91FF90EF900895CF93DF93EC01888DDB
:100500008823C9F0EA89FB89808185FD05C0A88917
:10051000B9898C9186FD0FC00FB607FCF5CF80819D
:1005200085FFF2CFA889B9898C9185FFEDCFCE01E7
:100530000E941402E7CFDF91CF91089580E090E010
:10054000892B29F00E940A0281110C940000089561
:10055000833081F028F4813099F08230A1F0089541
:100560008730A9F08830B9F08430D1F480918000D0
:100570008F7D03C0809180008F77809380000895E5
:1005800084B58F7702C084B58F7D84BD0895809136
:10059000B0008F7703C08091B0008F7D8093B00052
:1005A00008953FB7F89480910A0690910B06A091A8
:1005B0000C06B0910D0626B5A89B05C02F3F19F07B
:1005C0000196A11DB11D3FBFBA2FA92F982F8827D3
:1005D000820F911DA11DB11DBC01CD0142E0660F2E
:1005E000771F881F991F4A95D1F708950895089598
:1005F000089583FF02C098E2892787FD06C08064C2
:10060000909160009093020602C08091020694B718
:10061000977F94BFF89490916000986190936000E8
:10062000809360007894089580E090E008950E949F
:10063000591E0F931F93CF93DF93EC01888199810B
:10064000009729F02A813B812617370788F48B0110
:100650006F5F7F4F0E948F1D009761F099838883A1
:100660001B830A832C813D81232B11F4FC01108212
:1006700081E001C080E0DF91CF911F910F9108953B
:100680001F920F920FB60F9211242F933F934F9307
:100690005F936F937F938F939F93AF93BF93EF93EA
:1006A000FF9388E796E00E941402FF91EF91BF91BB
:1006B000AF919F918F917F916F915F914F913F91FA
:1006C0002F910F900FBE0F901F9018951F920F92B1
:1006D0000FB60F9211242F938F939F93EF93FF9355
:1006E000E0918806F09189068081E0918E06F09174
:1006F0008F0682FD12C09081809191068F5F8F736B
:1007000020919206821751F0E0919106F0E0E858AE
:10071000F94F958F8093910601C08081FF91EF91F1
:100720009F918F912F910F900FBE0F901F90189552
:10073000CF93DF93282F30E0F901EC56FF4F8491DF
:10074000F901E652FD4FD491F901EA53FD4FC491EE
:10075000CC2391F081110E94A802EC2FF0E0EE0F63
:10076000FF1FE454FD4FA591B491EC91ED2381E07E
:1007700090E021F480E002C080E090E0DF91CF9132
:1007800008951F93CF93DF93282F30E0F901EC56A3
:10079000FF4F8491F901E652FD4FD491F901EA53DC
:1007A000FD4FC491CC23C9F0162F81110E94A802DD
:1007B000EC2FF0E0EE0FFF1FE657FF4FA591B4912D
:1007C0008FB7F894111105C09C91ED2FE095E923A6
:1007D00002C0EC91ED2BEC938FBFDF91CF911F9175
:1007E0000895CF93DF9390E0FC01E652FD4F2491F2
:1007F000FC01EA53FD4F8491882361F190E0880F5A
:10080000991FFC01E058FF4FC591D491FC01E657B8
:10081000FF4FA591B491611109C09FB7F8948881E9
:10082000209582238883EC912E230BC0623061F4E3
:100830009FB7F8943881822F809583238883EC9129
:100840002E2B2C939FBF06C08FB7F894E8812E2BD8
:1008500028838FBFDF91CF9108958E3008F08E509E
:100860008770806480937C0080917A00806480939C
:100870007A0080917A0086FDFCCF809178002091EB
:10088000790090E0922B08958F929F92AF92BF9241
:10089000CF92DF92EF92FF926B017C010E94D10216
:1008A0004B015C01C114D104E104F104F1F00E9498
:1008B000D102DC01CB0188199909AA09BB09883E3C
:1008C0009340A105B10570F321E0C21AD108E108F7
:1008D000F10888EE880E83E0981EA11CB11CC1149B
:1008E000D104E104F10419F7DDCFFF90EF90DF9020
:1008F000CF90BF90AF909F908F9008952FB7F894AE
:10090000609106067091070680910806909109068D
:100910002FBF08950F931F930E947E040091FD0541
:100920001091FE052091FF0530910006DC01CB01FE
:10093000801B910BA20BB30B8F369105A105B1055E
:1009400028F0809105048F5F809305040E947E0447
:100950006093FD057093FE058093FF05909300065C
:100960001F910F9108951F920F920FB60F921124AD
:100970002F933F938F939F93AF93BF9380910606DE
:1009800090910706A0910806B091090630910506DE
:1009900023E0230F2D3720F40196A11DB11D05C0C2
:1009A00026E8230F0296A11DB11D20930506809312
:1009B000060690930706A0930806B0930906809157
:1009C0000A0690910B06A0910C06B0910D060196B7
:1009D000A11DB11D80930A0690930B06A0930C06EF
:1009E000B0930D06BF91AF919F918F913F912F9141
:1009F0000F900FBE0F901F9018951F920F920FB679
:100A00000F9211242F933F934F935F936F937F9394
:100A10008F939F93AF93BF93EF93FF93E091020166
:100A2000F09103010995FF91EF91BF91AF919F91D3
:100A30008F917F916F915F914F913F912F910F9087
:100A40000FBE0F901F9018951F920F920FB60F9226
:100A500011242F933F934F935F936F937F938F93C3
:100A60009F93AF93BF93EF93FF93E0910001F091B9
:100A700001010995FF91EF91BF91AF919F918F91E6
:100A80007F916F915F914F913F912F910F900FBE8A
:100A90000F901F901895FC0190810180F281E02D4C
:100AA000F8948181892B81832281892F8095282345
:100AB0002283A7E0B0E01197F1F72181822381839F
:100AC000A3E2B0E01197F1F780817894EFECF0E0C9
:100AD0003197F1F7982381E009F480E00895FC0153
:100AE00090810180F281E02D892F809560FF12C0F6
:100AF000F8942281822382838181892B8183A3E2DE
:100B0000B0E01197F1F78281982B9283789487ED6A
:100B100090E011C0F8942281822382838181892B05
:100B20008183AFEFB0E01197F1F78281982B928328
:100B300078948FE090E00197F1F70895CF92DF92DB
:100B4000EF92FF920F931F93CF93DF931F92CDB736
:100B5000DEB76C01E62E08E010E0FF24F39461E0BC
:100B60008F2D8E2109F460E0C60149830E946F0534
:100B7000FF0C0150110949810115110581F741113F
:100B800015C0F894D6011196ED91FC9112979181C0
:100B90008C918095892381831196ED91FC91129718
:100BA00092818C9180958923828378940F90DF9134
:100BB000CF911F910F91FF90EF90DF90CF9008950C
:100BC000CF92DF92EF92FF920F931F93CF93DF9319
:100BD0001F92CDB7DEB78C01F62E40E065E5798334
:100BE0000E949E05CF2C7981D72E760188E0E80EF1
:100BF000F11CF60161916F0140E0C8010E949E0561
:100C0000CE14DF04B1F70F90DF91CF911F910F91B8
:100C1000FF90EF90DF90CF900895FC0190810180CC
:100C2000F281E02DF8948181292F20958223818300
:100C300078948DE743E050E0815021F1DA0111977B
:100C4000F1F730813923C1F3F894828182238283C2
:100C50008181892B81837894ABE7B7E01197F1F715
:100C6000F894818128232183A3E1B1E01197F1F762
:100C70008081982381E009F080E07894E3E6F6E053
:100C80003197F1F708958EE480937C0062E070E084
:100C900080E090E00E94440480917A008064809318
:100CA0007A0080917A0086FDFCCF809178002091B7
:100CB000790030E0322F2227A901330F660B770B22
:100CC0009A01AB01282B60E070E381E190E00E9483
:100CD0001A1CCA01B9010895E8982A988EBD0DB46E
:100CE00007FEFDCF8EB56EBD0DB407FEFDCF8EB5F0
:100CF0002A9AE89A089560E00C946C06CF93C82F66
:100D000081E00E947B06837E682F6C2B81E8CF9167
:100D10000C946C0688E20E947B06807521F080E0CE
:100D20000E947B06F7CF08958627682F6295682773
:100D3000062E669566956025062E66956025677079
:100D4000082E892F669507946795902D862706941F
:100D50006795902586270895CF93809177068530F3
:100D600009F054C060E485EA0E946C0684E20E94A7
:100D70007B06809304067894C8E488E20E947B0690
:100D80008075D9F38091140681110FC0E0910F0690
:100D9000F09110068091140691E0980F909314063C
:100DA00090911306E80FF11D908380E00E947B066E
:100DB000E0910F06F09110069091140621E0290FA2
:100DC00020931406E90FF11D8083682F809111068E
:100DD000909112060E949406909312068093110639
:100DE00080911706833410F0C09314068091170683
:100DF0002091140690E0049630E082179307ACF03F
:100E000080911406883408F4B8CF0FC088E20E949D
:100E10007B0683FF0AC084E0809377060E947E06EB
:100E200060E885EACF910C946C06CF910895CF923B
:100E3000DF92EF92FF921F93CF93DF936C01EC014F
:100E400038E0E32EF12CC031D10508F441C0CE01C9
:100E500010E08032910530F01F5F193019F096953F
:100E60008795F7CF10920306812F0E94F9022091F7
:100E70007A0080917A008F7780937A0093B7917F80
:100E8000946093BFF89483B7816083BF85B7806611
:100E900085BF95B79F79906495BF7894889583B7FF
:100EA0008E7F83BF20937A008FEF0E94F902C701E3
:100EB00002C0880F991F1A95E2F7C81BD90B209121
:100EC0000306222319F0C81BD90BBDCF80E001C057
:100ED00081E04091060650910706609108067091E6
:100EE0000906CC1ADD0A4C0D5D1D611D711D409374
:100EF0000606509307066093080670930906DF9173
:100F0000CF911F91FF90EF90DF90CF900895CF93F6
:100F1000DF9390ED980F9A3060F490910106990F4D
:100F2000292F220F220F920F9053890F80930106D1
:100F300080C081320CF47BC0893619F16CF48236A2
:100F400039F1873609F060C08091010690E09093F6
:100F50000901809308015AC0833781F1863709F06F
:100F600053C082E790E00E94DB0D42E060E070E059
:100F700080E490E40E94FC0D80E790E00E94DB0D8D
:100F800045C080910106882319F080930B013EC073
:100F900080910106843031F0883031F0893031F0B1
:100FA00080E005C081E003C082E001C083E080935F
:100FB0000106882359F180930A0128C08DEC93E043
:100FC0000E94CD0DC0E0D0E060E0CE010E94161A74
:100FD0002196C11584E0D807B9F760910B0180E034
:100FE00090E00E94161A60910A0181E090E00E9450
:100FF000161A6091080182E090E00E94161A87EDAF
:1010000093E00E94CD0D02C00E9438088AE690E06D
:101010000E94DB0D8091040490E00E941B0A88E688
:1010200090E00E94DB0D8DE991E00E94C8091092CA
:101030000106DF91CF9108951F920F920FB60F9284
:1010400011248F93809103068F5F809303068F9105
:101050000F900FBE0F901F901895E0917806F091B9
:1010600079060190F081E02D682F88E796E00994D9
:101070001F93CF93DF93C8EAD1E0FE0114911123AF
:1010800051F01A3019F48DE00E942D08812F0E9432
:101090002D082196F2CFDF91CF911F910895809175
:1010A0007706843064F483B7817F8C6083BF83B715
:1010B000816083BF889583B78E7F83BFF0CF08950B
:1010C0000F931F93CF93DF9314E0C5E1D6E005E0C3
:1010D00080917706853009F076C0809114068111E1
:1010E00072C084E0809377060E947E068AE1809336
:1010F0001706EDE5F6E080E090E0DC01A85EB94F70
:1011000021912C9301968A319105B9F780910E06B1
:1011100080931606609113068FEF9FEF0E9494064E
:101120009093120680931106909117068EEF891BFB
:10113000809377060E948A068CE00E947E0660E01B
:1011400085EA0E946C068091770683300CF0A6C079
:1011500088E20E947B0687FDF6CF8091770687FFA5
:101160001BC09091170680917706E0910F06F091D1
:101170001006E90FF11DE80FF11D87FDFA95C381F7
:101180006C2F80911106909112060E949406909304
:101190001206809311060DC080917706882329F0EE
:1011A000813031F4C091120604C0C091110601C013
:1011B000CAEA6C2F80E80E946C06809177068F5FE8
:1011C00080937706C0CF80917706843011F5109216
:1011D000170610921406609113068FEF9FEF0E947E
:1011E00094069093120680931106D0931006C09334
:1011F0000F06009377060E948A0660E885EA0E943F
:101200006C0680E10E947E0662E08EE90E946C0618
:1012100010C0853071F4809117062091140690E07B
:10122000049630E0821793077CF08091140688348E
:1012300058F48FEF9FEF9093370780933607809194
:1012400036079091370744CF1093770684E00E94C9
:101250007E0680911706833418F081E090E0EBCF92
:101260008091110690911206892BB9F7809116068C
:1012700086FF11C030910E063F3169F020911606AD
:101280002F7181E090E0231302C080E090E09195FF
:1012900081959109D0CF80E090E0CDCFDF91CF91C3
:1012A0001F910F910895AF92BF92CF92DF92EF926C
:1012B000FF920F931F93CF93DF938B01BC0180911B
:1012C0001A0790911B070E94E00540E06EEB8091A9
:1012D0001A0790911B070E949E05E801680189E0AA
:1012E000C80ED11CA0901A07B0901B0788E0E82E0A
:1012F000F12C01E010E0C5010E944B058111102B7B
:10130000000F81E0E81AF108B1F71993CC15DD055B
:1013100049F780911A0790911B070E940D0691E0F2
:10132000813009F090E0892FDF91CF911F910F91CB
:10133000FF90EF90DF90CF90BF90AF9008950F9304
:101340001F93CF93DF938C01EB0180911A0790914B
:101350001B070E940D068823A9F0BE01C8010E9448
:101360005309882379F0DE0189E0E0E0815039F00B
:101370009D91E927F0E0E855FF4FE491F7CF81E038
:101380009885E91380E0DF91CF911F910F91089527
:10139000009769F0FC0101900020E9F73197AF0157
:1013A000481B590BBC0188E796E00C94A20180E031
:1013B00090E008958F929F92AF92BF920F931F93E8
:1013C000CF93DF93CDB7DEB7A1970FB6F894DEBF0A
:1013D0000FBECDBF19A2423008F44AE08E010F5D66
:1013E0001F4F842E912CA12CB12CA50194010E9499
:1013F000F81BE62FB901CA0101501109EA3014F4B3
:10140000E05D01C0E95CD801EC93232B242B252B54
:1014100061F7C8010E94C809A1960FB6F894DEBF13
:101420000FBECDBFDF91CF911F910F91BF90AF90B5
:101430009F908F900895CF92DF92EF92FF92CF937B
:10144000DF936C01990FEE08FF08F7FE17C08DE2DD
:101450000E942D08EC0166277727CB016C197D09C6
:101460008E099F094AE00E94DA098C0F9D1FDF91C7
:10147000CF91FF90EF90DF90CF9008954AE0C701A1
:10148000B601DF91CF91FF90EF90DF90CF900C9459
:10149000DA090C94C8092F923F924F925F926F9293
:1014A0007F928F929F92AF92BF92CF92DF92EF92F4
:1014B000FF920F931F93CF93DF9300D000D0CDB74F
:1014C000DEB79C838B830E9443066B017C010EE791
:1014D00016E08B819C81885B9F4F9A8389832B8048
:1014E0003C809CE4290E311CEB81FC8186890E94A2
:1014F0002D04EB81FC8197A386A3BC01990F880B77
:10150000990B0E94F9184B015C01EB81FC8140AC06
:1015100051AC62AC73ACA30192010E946A1A20E044
:1015200030E040E85AE30E9458199B01AC01C30126
:10153000B2010E946B1A9B01AC01EB81FC8160AF90
:1015400071AF82AF93AFC501B4010E946A1AEB81FB
:10155000FC8160AB71AB82AB93AB9B01AC010E9491
:101560005819E981FA816083718382839383F10141
:1015700020813181428153810E946B1AF101608385
:101580007183828393830150110909F0ADCF20E06C
:1015900030EC4FEC54E40E94D71A0E948A1B4B0196
:1015A0005C01B601DD0C880B990B0E94F91820E054
:1015B00030E04AE754E40E94D71A20E030E040E8E7
:1015C0005AE30E945819EB81FC81248D358D468D9C
:1015D000578D0E945819A50194010E945819EB815A
:1015E000FC81608B718B828B938BF1011082118255
:1015F000128213820F900F900F900F90DF91CF9176
:101600001F910F91FF90EF90DF90CF90BF90AF9020
:101610009F908F907F906F905F904F903F902F9012
:1016200008952F923F924F925F926F927F928F9286
:101630009F92AF92BF92CF92DF92EF92FF920F9361
:101640001F93CF93DF93CDB7DEB7A2970FB6F89471
:10165000DEBF0FBECDBF9AA389A30E944306698B4C
:101660007A8B8B8B9C8B0E947E044B015C0169A062
:101670007AA028E5620E711CA9A1BAA154968C919A
:101680000E942D04F30191838083BC01990F880B84
:10169000990B0E94F9186B017C012DEC3CEC4CE09D
:1016A00054E40E94F21887FF0BC011E026E636E6EC
:1016B00046EE53E4C701B6010E947F1B18160CF0DA
:1016C00010E00E947E04DC01CB0188199909AA0967
:1016D000BB09813D9740A105B10510F4112361F2CA
:1016E0000E947E046D8B7E8B8F8B988F00E010E0C4
:1016F0001A82198229A13AA1205C3F4F3A8F298F83
:1017000049A15AA14C5B5F4F5C874B8789A19AA185
:10171000885B9F4F9C8F8B8FA9A1BAA1A45BBF4F01
:10172000BE87AD87E9A1FAA1E05BFF4FFE8FED8F89
:1017300029A13AA12C5A3F4F388B2F8749A15AA192
:10174000465A5F4F5E834D8329A03AA05BE5250E84
:10175000311C89A19AA1885A9F4F98A38F8F0E940C
:101760007E04DC01CB012D893E894F89588D821B77
:10177000930BA40BB50B803D9740A105B10508F470
:10178000DAC049895A89BA01550F880B990B0E9412
:10179000F91820E030E04AE754E40E94D71A20E02C
:1017A00030E040E85AE30E9458192B013C01A9A1FE
:1017B000BAA158962D913D914D915C915B970E94F5
:1017C00058194B015C01E981FA81BF0180E090E08A
:1017D0000E94F7186B017C0129A03AA0F4E42F0EB7
:1017E000311C9B01AC01D1016D917D918D919C913A
:1017F0000E94D71A0E948A1B9B01AC01C501B4014B
:101800000E94581969837A838B839C83E9A1FAA18A
:101810006487758786879787248D358D468D578D8C
:10182000C301B2010E9458192B013C0109A11AA160
:10183000045B1F4FA7019601D8016D917D918D9199
:101840009C910E94D71A0E948A1B9B01AC01C30184
:10185000B2010E9458196D837E838F839887E9A116
:10186000FAA1608B718B828B938BA3019201C501CE
:10187000B4010E945819A9A0BAA0F4E5AF0EB11C9A
:10188000D5012D913D914D915C910E945819A70170
:1018900096010E94D71A6B017C01E9A1FAA160832D
:1018A0007183828393832D813E814F815885698125
:1018B0007A818B819C810E9458199B01AC01A9A15E
:1018C000BAA114966D937D938D939C931797C7013E
:1018D000B6010E94D71AE9A1FAA1608771878287B1
:1018E0009387D1011D921D921D921C921397F801AE
:1018F0001082118212821382D5011D921D921D92B7
:101900001C921397A2960FB6F894DEBF0FBECDBF00
:10191000DF91CF911F910F91FF90EF90DF90CF90CB
:10192000BF90AF909F908F907F906F905F904F90FF
:101930003F902F900895E981FA813196FA83E983E7
:10194000E9A1FAA184A595A5A6A5B7A580A791A709
:10195000A2A7B3A784890E942D04A9A1BAA1959634
:101960009C938E93949756968C910E942D043C01E3
:10197000E9A1FAA197A386A324A135A13A872987D3
:10198000B901330F880B990B0E94F9186B017C0188
:10199000A9A1BAA1D4968D909D90AD90BC90D797F7
:1019A000A50194010E946A1A20E030E040E85AE361
:1019B0000E9458199B01AC01C501B4010E946B1A29
:1019C0009B01AC01E9A1FAA164AB75AB86AB97AB07
:1019D000C701B6010E946A1A4B015C01A9A1BAA114
:1019E0009C966D937D938D939C939F97B301770CF9
:1019F000880B990B0E94F9186B017C01E9A1FAA1EF
:101A000040AC51AC62AC73ACA30192010E946A1A63
:101A100020E030E040E85AE30E9458199B01AC01F5
:101A2000C301B2010E946B1A9B01AC01A9A1BAA12A
:101A3000D8966D937D938D939C93DB97C701B601E8
:101A40000E946A1A6B017C01E9A1FAA160AB71AB3B
:101A500082AB93ABA5019401C501B4010E94581952
:101A60009B01AC01A98DBA8D6D937D938D939C9351
:101A70001397EB85FC8560817181828193810E943F
:101A80006B1AAB85BC856D937D938D939C93139757
:101A9000A7019601C701B6010E9458199B01AC012C
:101AA000EB8DFC8D6083718382839383AD85BE85CE
:101AB0006D917D918D919C910E946B1AED85FE85B3
:101AC0006083718382839383A9A1BAA198964D9074
:101AD0005D906D907C909B97A3019201C501B4012C
:101AE0000E946A1AE9A1FAA120A131A142A153A141
:101AF0000E9458199B01AC01C301B2010E946B1AEC
:101B0000A9A1BAA1DC966D937D938D939C93DF97E9
:101B1000A70196010E9458199B01AC01ED8DFE8D25
:101B20006083718382839383AF85B8896D917D9142
:101B30008D919C910E946B1AEF85F8896083718367
:101B400082839383D1018C91ED81FE818083AF8D5F
:101B5000B8A18D919C91E985FA858E179F0724F491
:101B6000E1E0D101EC9302C0D1011C92E981FA813C
:101B7000319729F4D1018C91ED81FE818083AD8173
:101B8000BE819C91F1018081981711F00F5F1F4F6A
:101B90000E31110508F0F5CDE2CDCF93DF930E9411
:101BA000C809EC018DE991E00E94C8098C0F9D1FC6
:101BB000DF91CF9108950F931F93CF93DF938C0103
:101BC000C0E0D0E0F801EC0FFD1F6491662371F0D6
:101BD000E0917806F09179060190F081E02D88E798
:101BE00096E00995892B11F02196ECCFCE01DF917B
:101BF000CF911F910F9108954F925F926F927F92B4
:101C00008F929F92AF92BF92CF92DF92EF92FF920C
:101C10006B017C01B42E9B01AC010E94CA1B88237E
:101C200019F088EF93E027C026013701E89477F890
:101C30002FEF3FEF4FE75FE7C301B2010E94CA1BDE
:101C400081110DC02FEF3FEF4FE75FE7C301B201F6
:101C50000E94F21818161CF48CEF93E00CC02FEFC2
:101C60003FEF4FE75FE4C701B6010E947F1B1816E4
:101C700084F480E094E0FF90EF90DF90CF90BF90ED
:101C8000AF909F908F907F906F905F904F900C944B
:101C9000C8092FEF3FEF4FE75FECC701B6010E9485
:101CA000F21887FDE6CF20E030E0A901C701B601B8
:101CB0000E94F21887FF09C08DE20E942D084C0196
:101CC000F7FAF094F7F8F09402C0812C912CA12C33
:101CD00060E070E080E09FE3AB1441F020E030E092
:101CE00040E251E40E94D71AA394F6CF9B01AC01C5
:101CF000C701B6010E946B1A2B013C010E94501BC8
:101D00006B017C010E94F7189B01AC01C301B20179
:101D10000E946A1A2B013C014AE0C701B6010E94E9
:101D2000DA097C01E80CF91CBB2029F08EE20E9444
:101D30002D08E80EF91EDB2CDD2021F120E030E03B
:101D400040E251E4C301B2010E9458192B013C0149
:101D50000E94501B4B01A12CB12C4AE0C501B401DB
:101D60000E94DA09E80EF91EC501B4010E94F718B5
:101D70009B01AC01C301B2010E946A1A2B013C0114
:101D8000DA94DACFC701FF90EF90DF90CF90BF9049
:101D9000AF909F908F907F906F905F904F9008953D
:101DA000CF93DF9342E00E94FC0DEC018DE991E0BE
:101DB0000E94C8098C0F9D1FDF91CF910895AF92AB
:101DC000BF92CF92DF92EF92FF920F931F93CF9328
:101DD000DF931F92CDB7DEB75C01D62EE72EFC0154
:101DE0008585811105C0C5010E940D06811106C0BF
:101DF000F50113861586148680E065C040E060EF2B
:101E0000C5010E949E0501E0F12CC12C11E0C50125
:101E10000E944B05682FC50169830E944B056981AB
:101E2000613019F48130B9F433C04F2D50E068139C
:101E30001BC0F5018385181730F4E40FF51F83816B
:101E4000802349F402C0181731F060E0193058F4CB
:101E5000F501148708C0F501EF0DF11D8381802B7A
:101E6000838361E009C0C12EF501E40FF51F938162
:101E7000802F809589238383C5010E946F051F5F92
:101E8000000F11F4F39401E0F7E0FF1508F0BFCF65
:101E9000113408F4ADCFF501C386C11002C081E052
:101EA0008587F5018381882309F4A2CFD501139694
:101EB000ED2DFE2D9501255F3F4F8D918193A2174A
:101EC000B307D9F781E00F90DF91CF911F910F9168
:101ED000FF90EF90DF90CF90BF90AF900895CF9399
:101EE000DF93CDB7DEB729970FB6F894DEBF0FBEEC
:101EF000CDBFFC0120812031D1F0BE016F5F7F4F4B
:101F00000E949F09882389F08D818F3361F020F42E
:101F10008F3159F489E00CC08F3519F08F3739F0C3
:101F200004C08BE005C08AE003C080E001C08CE003
:101F300029960FB6F894DEBF0FBECDBFDF91CF91CB
:101F400008950F931F930E947E0460938006709300
:101F500081068093820690938306E0917806F09143
:101F600079060284F385E02D88E796E0099597FFCE
:101F70001FC00E947E04009180061091810620916E
:101F8000820630918306DC01CB01801B910BA20BF2
:101F9000B30B00917C0610917D0620917E06309156
:101FA0007F0680179107A207B307B8F28FEF9FEF64
:101FB0001F910F910895CF93DF93CDB7DEB762974E
:101FC0000FB6F894DEBF0FBECDBF789484B58260A3
:101FD00084BD84B5816084BD85B5826085BD85B5CD
:101FE000816085BD80916E00816080936E0010924B
:101FF00081008091810082608093810080918100C6
:102000008160809381008091800081608093800056
:102010008091B10084608093B1008091B0008160B4
:102020008093B00080917A00846080937A008091E0
:102030007A00826080937A0080917A008160809338
:102040007A0080917A00806880937A001092C100B3
:1020500061E086E00E94F10361E083E10E94F10308
:1020600062E083E00E94F1031092730610927406FE
:10207000109275061092760661E086E00E94C10318
:1020800062E088E00E94F10362E089E00E94F103CF
:10209000E0918806F091890682E08083E0918406D1
:1020A000F09185061082E0918606F091870680E126
:1020B000808310929006E0918C06F0918D0686E068
:1020C0008083E0918A06F0918B0680818061808315
:1020D000E0918A06F0918B06808188608083E09190
:1020E0008A06F0918B06808180688083E0918A0661
:1020F000F0918B0680818F7D80838CE291E00E943D
:10210000490A60E070E080E490E40E94D00E8CE424
:1021100091E00E94CD0D8EE493E00E94CD0D82E609
:1021200091E00E94CD0D84E791E00E94CD0D89E001
:102130000E949803892B19F481E080930404809114
:102140000404882379F080E090E0A2E0B3E4809377
:10215000040190930501A0930601B093070188E75D
:1021600080930C016AE070E080E090E00E944404FB
:1021700081E00E942D04181619064CF481E080932A
:10218000AC05809106048F5F8093060402C0109214
:10219000AC0582E00E942D04181619064CF481E06B
:1021A00080934F05809106048F5F8093060402C0E0
:1021B00010924F0583E00E942D04181619064CF466
:1021C00081E08093F204809106048F5F809306047F
:1021D00002C01092F20484E00E942D041816190621
:1021E0004CF481E080939504809106048F5F809386
:1021F000060402C01092950480910604811103C068
:1022000081E08093AC050E947E046093AE057093DC
:10221000AF058093B0059093B1050E947E040091B4
:10222000AE051091AF052091B0053091B105005F6A
:10223000184D2F4F3F4F601771078207930708F023
:1022400070C088E796E00E94FE01892B31F31A8264
:1022500019821C821B821E821D8260E070E0CE010A
:1022600001960E94190329813A8181110DC021151F
:10227000310519F0C9010E94F71C1A8219821E82C9
:102280001D821C821B8220C01E821D826FE971E0AC
:10229000C9010E94701E18C08A871B860F5F1F4FDE
:1022A000B801CE0101960E941903882369F02981A3
:1022B0003A818D819E81BE01665F7F4F820F931FA1
:1022C0000E94701E1E830D830E94A10F0D811E812E
:1022D00097FFE2CFE980FA80012B41F06AE971E0D3
:1022E000C7010E94671E11E0892B09F010E0C701A9
:1022F0000E94F71C112309F490CF80EA91E00E941C
:10230000CD0D0E94380886E70E94870788E796E08F
:102310000E94FE01892BD1F388E796E00E94DC0140
:10232000F3CF60E086E00E94C10304EF16E0812C49
:10233000912C540180E00E942D04DC01B2509D01DB
:102340000E94391C860E971EA81EB91E0150110945
:1023500089F7C501B4010E94F71820E030E84EED7E
:1023600054E40E94D71A0E948A1B4B015C0123E3AC
:1023700033E343E55BE360910401709105018091D3
:102380000601909107010E9458199B01AC01C501FB
:10239000B4010E9458194B015C0120E030E044EB8D
:1023A00052E40E947F1B181624F481E08093AD054F
:1023B00002C01092AD058091AD058823D1F00AE0EE
:1023C00010E061E086E00E94C10368EC70E080E00C
:1023D00090E00E94440460E086E00E94C1036CE249
:1023E00071E080E090E00E9444040150110949F737
:1023F00014C068EE73E080E090E00E94440461E065
:1024000086E00E94C10360ED77E080E090E00E94EA
:10241000440460E086E00E94C10361E083E10E9421
:10242000C10364E670E080E090E00E944404E09123
:102430001A07F0911B07138615861486DF011B9679
:1024400033961E92AE17BF07E1F7109219078E015F
:10245000065F1F4F87E0E82EE00EFF24F394B801DB
:1024600080911A0790911B070E94DF0E882309F4C0
:102470005AC0D801E0E0EA1639F08D91E827F0E083
:10248000E855FF4FE491F7CF8989E813E8CF8091B1
:102490001507811125C080911A0790911B070E9492
:1024A0000D06B80180911A0790911B070E94E00564
:1024B00040E064EB80911A0790911B070E949E05F3
:1024C00080911A0790911B070E944B05782E8091EE
:1024D0001A0790911B070E940D06772009F441C04E
:1024E00080911A0790911B070E940D06882331F0F6
:1024F000BE016F5F7F4FC8010E945309709016079D
:10250000C8010E946F0F871518F48091160703C049
:10251000C8010E946F0F80931607809119078F5F83
:10252000809319079CCF1092170780911907809309
:102530000704873018F086E08093070410E00091CC
:102540000704101788F428E0129FB0011124685F77
:102550007B4F88E297E00E94DF0E882329F01F5FFF
:10256000EECFF0921507BCCF64EF71E080E090E011
:102570000E94440460E083E10E94C103011103C092
:102580001092380403C081E08093380488EB91E016
:102590000E94490A6DEC7CEC85EB92E40E94D00E1F
:1025A00082EC91E00E94490A6DEC7CEC85EB92E4B0
:1025B0000E94D00E8CEC91E00E94490A6DEC7CECFC
:1025C00085EB92E40E94D00E86ED91E00E94490ACC
:1025D00069E27CE585E891E40E94D00E68EE73E044
:1025E00080E090E00E94440480EE91E00E94490A5D
:1025F00040E0C501B4010E94FC0D8AE491E00E9414
:10260000CD0D8091AD05882349F18CEF91E00E94BA
:10261000CD0D88E292E00E94CD0D809104048823C4
:1026200021F080E592E00E94CD0D80E692E00E94CC
:10263000490A609104017091050180910601909111
:1026400007010E94D00E87E692E00E94490A6DECD5
:102650007CEC8CEE9FE30E94D00E18C085E792E0E0
:102660000E94CD0D87EA92E00E94490A60910C0118
:1026700070E080E090E04AE00E94DA098AE491E0AC
:102680000E94CD0D87EB92E00E94CD0D8091060453
:10269000811103C08EEE92E01EC08091AC058823AC
:1026A00021F08FEF92E00E94CD0D80914F0588239D
:1026B00021F08DE093E00E94CD0D8091F2048823FB
:1026C00021F08BE193E00E94CD0D80919504882349
:1026D00021F089E293E00E94CD0D80913804882397
:1026E00089F087E393E00E94490A6091070470E053
:1026F00080E090E04AE00E94DA098DE991E00E94D2
:10270000C80904C080E593E00E94CD0D86E693E001
:102710000E94490A80913804882361F086E893E09A
:102720000E94490A6091070470E080E090E04AE06E
:102730000E94DA0986E993E00E94490A8EE493E058
:102740000E94CD0D64EF71E080E090E00E944404AF
:102750003091AC053323F1F081E090E09093670570
:10276000809366058DEC9CECA5EBB2E480936C0540
:1027700090936D05A0936E05B0936F0580E090E097
:10278000A0E0B4E48093880590938905A0938A051E
:10279000B0938B0520914F052223F1F082E090E069
:1027A00090930A05809309058DEC9CECA5EBB2E4AF
:1027B00080930F0590931005A0931105B093120517
:1027C00080E090E0A0E0B4E480932B0590932C058A
:1027D000A0932D05B0932E059091F2049923F1F06A
:1027E00043E050E05093AD044093AC044DEC5CECFE
:1027F00065EB72E44093B2045093B3046093B40465
:102800007093B50440E050E060E074E44093CE047F
:102810005093CF046093D0047093D10480919504B9
:102820008823F1F044E050E05093500440934F046B
:1028300049E25CE565E871E4409355045093560421
:10284000609357047093580440E050E060E074E4F3
:1028500040937104509372046093730470937404F2
:102860004091AD05442309F4B8C0332361F1409190
:1028700004015091050160910601709107011092C9
:10288000650510926405409368055093690560934F
:102890006A0570936B054DEC5CEC6CEE7FE3409346
:1028A000700550937105609372057093730540E055
:1028B00050E060E074E44093840550938505609394
:1028C000860570938705222361F1409104015091A0
:1028D00005016091060170910701109208051092A0
:1028E000070540930B0550930C0560930D057093FD
:1028F0000E054DEC5CEC6CEE7FE3409313055093BA
:102900001405609315057093160540E050E060E0F3
:1029100074E440932705509328056093290570932C
:102920002A05992361F140910401509105016091BC
:102930000601709107011092AB041092AA04409313
:10294000AE045093AF046093B0047093B1044DECA7
:102950005CEC6CEE7FE34093B6045093B704609355
:10296000B8047093B90440E050E060E074E4409330
:10297000CA045093CB046093CC047093CD04882395
:1029800061F18091040190910501A0910601B0913F
:10299000070110924E0410924D04809351049093BD
:1029A0005204A0935304B09354048DEC9CECACEE11
:1029B000BFE38093590490935A04A0935B04B093AF
:1029C0005C0480E090E0A0E0B4E480936D04909318
:1029D0006E04A0936F04B09370048AE894E090931F
:1029E00003018093020180916900837F8860809356
:1029F0006900E99A88EB9BE09093680680936706EC
:102A000090936A068093690690936C0680936B0698
:102A100090936E0680936D069093700680936F0678
:102A200090937206809371061FE5312E0CE6402EBE
:102A300007E0502E612C712C0E947E046093AE053D
:102A40007093AF058093B0059093B1051091AD05DB
:102A5000112351F068EC70E080E090E00E944404A3
:102A600010926606109265068091AC05882309F4E1
:102A700040C080E595E0112329F10E94110B60917F
:102A800050057091510580915205909153050E9417
:102A9000491B70935E0660935D0620E030E048ECD1
:102AA00052E460915C0570915D0580915E059091A6
:102AB0005F050E9458190E94491B70936606609337
:102AC000650617C00E944B0A4B015C0160910C0126
:102AD00070E080E090E00E94F9189B01AC01C50114
:102AE000B4010E9458190E94491B70935E066093BE
:102AF0005D0680914F05882309F440C083EF94E080
:102B0000112329F10E94110B6091F3047091F404D8
:102B10008091F5049091F6040E94491B7093600621
:102B200060935F0620E030E048EC52E46091FF04DF
:102B30007091000580910105909102050E9458193D
:102B40000E94491B709366066093650617C00E9439
:102B50004B0A4B015C0160910C0170E080E090E059
:102B60000E94F9189B01AC01C501B4010E945819DB
:102B70000E94491B7093600660935F068091F20487
:102B8000882309F440C086E994E0112329F10E94CA
:102B9000110B609196047091970480919804909124
:102BA00099040E94491B709362066093610620E0BD
:102BB00030E048EC52E46091A2047091A30480914B
:102BC000A4049091A5040E9458190E94491B709377
:102BD00066066093650617C00E944B0A4B015C01B4
:102BE00060910C0170E080E090E00E94F9189B0178
:102BF000AC01C501B4010E9458190E94491B709391
:102C0000620660936106809195048823D1F189E37F
:102C100094E01123E9F00E94110B60913904709146
:102C20003A0480913B0490913C040E94491B7093AC
:102C300064066093630620E030E048EC52E4609163
:102C4000450470914604809147049091480428C03F
:102C50000E944B0A4B015C0180910C01682F70E0CF
:102C600080E090E00E94F9189B01AC01C501B4011D
:102C70000E9458190E94491B709364066093630672
:102C800002C0111115C087E00E942D04BC01990FEC
:102C9000880B990B0E94F9182BE23BE64EE25FE3AA
:102CA0000E9458190E94491B70936606609365063E
:102CB00080913804882309F43AC161E083E10E94DD
:102CC000C10382E390E00E941707B8E0EB2EB4E066
:102CD000FB2E8701A12CB12C20900704822D90E0BF
:102CE000A816B9060CF072C0BE016F5F7F4FC80115
:102CF0000E949F09882309F463C0F8018081803114
:102D000009F45EC03D8280911A0790911B070E94D2
:102D10000D06B80180911A0790911B070E94E005EB
:102D200040E06EE480911A0790911B070E949E0577
:102D300040E06B8180911A0790911B070E949E05CD
:102D400040E06C8180911A0790911B070E949E05BC
:102D5000F8018081803141F040E06D8180911A0757
:102D600090911B070E949E0580911A0790911B0766
:102D70000E940D06B80180911A0790911B070E94CE
:102D8000E0054091150768E480911A0790911B07B0
:102D90000E949E0564E170E080E090E00E9444049F
:102DA00080911507882331F06AE070E080E090E0C0
:102DB0000E94440480911A0790911B070E940D06FF
:102DC000FFEFAF1ABF0A085F1F4F86CF80911A0727
:102DD00090911B070E940D0640E06CEC80911A0751
:102DE00090911B070E949E054091150764E4809115
:102DF0001A0790911B070E949E0580911707882350
:102E0000A9F0E0911607E950E33040F4F0E0EE0F4E
:102E1000FF1FED5EFE4F6081718102C06EEE72E0B9
:102E2000072E000C880B990B0E94440487E791E061
:102E30000E94170707E616E01A8A3A89321509F444
:102E400072C0BE016F5F7F4FC7010E949F09882338
:102E500061F1698128E0629FB00111248A81282FE5
:102E600030E0322F2227330F330F330F262B372B2F
:102E7000F70180818031E1F4688570E08F81AB01DA
:102E8000481B5109CA019695982F882797958795D1
:102E90000E94E41B60517109207F53E0220F331F11
:102EA0005A95E1F7620F731F04C060E874EE01C029
:102EB000B901613854EE75075CF1072E000C880BE0
:102EC000990B0E94F91820E030E040E05CE30E949A
:102ED00058194B015C0120E030E04AEF52E40E94B7
:102EE000F21887FF15C020E030E04CE552ECC50138
:102EF000B4010E947F1B18165CF420E030E040E231
:102F000051E4C501B4010E9458190E94491B6B018C
:102F1000F801C192D1928F01FA89FF5FFA8B28E004
:102F2000E20EF11C8ACF60E083E10E94C103809130
:102F300005048823D1F0F89420910504809173064C
:102F400090917406A0917506B0917606820F911D3E
:102F5000A11DB11D8093730690937406A09375060E
:102F6000B09376061092050478948FE993E00E945E
:102F7000490A80915D0690915E060E941B0A84EAD0
:102F800093E00E94490A80915F06909160060E943A
:102F90001B0A8AEA93E00E94490A80916106909197
:102FA00062060E941B0A80EB93E00E94490A80910E
:102FB0006306909164060E941B0A86EB93E00E94D0
:102FC000490A80916506909166060E941B0A8DEB66
:102FD00093E00E94490A6091730670917406809193
:102FE0007506909176064AE00E94DA0980913804CD
:102FF000811134C085EC93E00E94490A20E030E062
:103000004AE754E46091A6047091A7048091A80453
:103010009091A9040E9458190E94491BCB010E945B
:103020001B0A8DE991E00E94C80962E370E080E02C
:1030300090E00E9444041091AD05112379F161E004
:1030400086E00E94C10368EC70E080E090E00E949E
:10305000440460E086E00E94C10320C010E080913B
:103060000704181738F68AEC93E00E94490A612F8A
:1030700070E080E090E04AE00E94DA0982EA93E0A2
:103080000E94490AE12FF0E0EE0FFF1FE959F94FC6
:10309000808191810E941B0A1F5FE1CF0E947E0404
:1030A0002091AE053091AF054091B0055091B1052A
:1030B000DC01CB01821B930BA40BB50BA301920186
:1030C000281B390B4A0B5B0BCA01B901112319F0FC
:1030D0000E94440405C0C901845F91400E94170703
:1030E0000E949E02A9CC10927B0610927A0688EE6E
:1030F00093E0A0E0B0E080937C0690937D06A093DF
:103100007E06B0937F068EE191E0909379068093DE
:10311000780685EC90E0909385068093840684EC95
:1031200090E0909387068093860680EC90E09093E1
:1031300089068093880681EC90E090938B068093BB
:103140008A0682EC90E090938D0680938C0686EC44
:1031500090E090938F0680938E06109291061092C5
:103160009206109293061092940660E085E00E9409
:10317000F103EFEDF2E0E491E0932807EBECF2E0ED
:10318000E491F0E0EE0FFF1FE454FD4F8591949120
:1031900090932A07809329071092330710923507DE
:1031A00010923407E3E3F7E0129287E0EB32F8077E
:1031B000D9F787EF92E0909327078093260788E25C
:1031C00097E090931B0780931A07109219071092AB
:1031D000150789E08093160781E080931707809395
:1031E000180708950E94341908F481E00895E894BE
:1031F00009C097FB3EF490958095709561957F4F3F
:103200008F4F9F4F9923A9F0F92F96E9BB279395EC
:10321000F695879577956795B795F111F8CFFAF4FC
:10322000BB0F11F460FF1BC06F5F7F4F8F4F9F4F2D
:1032300016C0882311F096E911C0772321F09EE88B
:10324000872F762F05C0662371F096E8862F70E0F1
:1032500060E02AF09A95660F771F881FDAF7880FCB
:103260009695879597F90895990F0008550FAA0B21
:10327000E0E8FEEF16161706E807F907C0F0121689
:103280001306E407F50798F0621B730B840B950B8C
:1032900039F40A2661F0232B242B252B21F40895E1
:1032A0000A2609F4A140A6958FEF811D811D08957E
:1032B0000E946B190C94DC190E94CE1938F00E9400
:1032C000D51920F0952311F00C94C5190C94CB1945
:1032D00011240C94101A0E94ED1970F3959FC1F3FC
:1032E000950F50E0551F629FF001729FBB27F00DB4
:1032F000B11D639FAA27F00DB11DAA1F649F662709
:10330000B00DA11D661F829F2227B00DA11D621F57
:10331000739FB00DA11D621F839FA00D611D221F11
:10332000749F3327A00D611D231F849F600D211DF5
:10333000822F762F6A2F11249F5750409AF0F1F078
:1033400088234AF0EE0FFF1FBB1F661F771F881FE1
:1033500091505040A9F79E3F510580F00C94C5193B
:103360000C94101A5F3FE4F3983ED4F3869577955A
:103370006795B795F795E7959F5FC1F7FE2B880F87
:10338000911D9695879597F9089597F99F6780E81D
:1033900070E060E008959FEF80EC089500240A94A7
:1033A0001616170618060906089500240A94121620
:1033B0001306140605060895092E0394000C11F453
:1033C000882352F0BB0F40F4BF2B11F460FF04C000
:1033D0006F5F7F4F8F4F9F4F089557FD9058440F59
:1033E000551F59F05F3F71F04795880F97FB991F64
:1033F00061F09F3F79F08795089512161306140621
:10340000551FF2CF4695F1DF08C0161617061806AD
:10341000991FF1CF86957105610508940895E89488
:10342000BB2766277727CB0197F90895262FF999AF
:10343000FECF1FBA92BD81BD20BD0FB6F894FA9A97
:10344000F99A0FBE019608952F923F924F925F9284
:103450006F927F928F929F92AF92BF92CF92DF92A4
:10346000EF92FF920F931F93CF93DF93CDB7DEB709
:10347000CA1BDB0B0FB6F894DEBF0FBECDBF09949D
:103480002A88398848885F846E847D848C849B84F4
:10349000AA84B984C884DF80EE80FD800C811B8102
:1034A000AA81B981CE0FD11D0FB6F894DEBF0FBE31
:1034B000CDBFED010895A29FB001B39FC001A39FAE
:1034C000700D811D1124911DB29F700D811D11245D
:1034D000911D08955058BB27AA270E94821A0C9468
:1034E000DC190E94CE1938F00E94D51920F039F469
:1034F0009F3F19F426F40C94CB190EF4E095E7FBEA
:103500000C94C519E92F0E94ED1958F3BA176207F8
:1035100073078407950720F079F4A6F50C940F1A29
:103520000EF4E0950B2EBA2FA02D0B01B9019001DE
:103530000C01CA01A0011124FF27591B99F0593F22
:1035400050F4503E68F11A16F040A22F232F342F6A
:103550004427585FF3CF469537952795A795F040B8
:103560005395C9F77EF41F16BA0B620B730B840BCD
:10357000BAF09150A1F0FF0FBB1F661F771F881F85
:10358000C2F70EC0BA0F621F731F841F48F48795DD
:1035900077956795B795F7959E3F08F0B0CF9395CF
:1035A000880F08F09927EE0F9795879508950E9448
:1035B000EB1A0C94DC190E94D51958F00E94CE1910
:1035C00040F029F45F3F29F00C94C51951110C9477
:1035D000101A0C94CB190E94ED1968F39923B1F3DA
:1035E000552391F3951B550BBB27AA276217730729
:1035F000840738F09F5F5F4F220F331F441FAA1FBD
:10360000A9F335D00E2E3AF0E0E832D09150504078
:10361000E695001CCAF72BD0FE2F29D0660F771F26
:10362000881FBB1F261737074807AB07B0E809F00C
:10363000BB0B802DBF01FF2793585F4F3AF09E3F91
:10364000510578F00C94C5190C94101A5F3FE4F3FF
:10365000983ED4F3869577956795B795F7959F5FD4
:10366000C9F7880F911D9695879597F90895E1E020
:10367000660F771F881FBB1F621773078407BA077F
:1036800020F0621B730B840BBA0BEE1F88F7E095DA
:1036900008950E94501B6894B1110C94101A08955B
:1036A0000E94F51988F09F5798F0B92F9927B751C4
:1036B000B0F0E1F0660F771F881F991F1AF0BA95D6
:1036C000C9F714C0B13091F00E940F1AB1E008950B
:1036D0000C940F1A672F782F8827B85F39F0B93FFD
:1036E000CCF3869577956795B395D9F73EF4909589
:1036F0008095709561957F4F8F4F9F4F08950E94E1
:10370000341908F48FEF089519F416F40C94CB19BA
:103710000C94CF1B0E94F519B8F39923C9F3B6F3A3
:103720009F57550B87FF0E94DD1B0024A0E640EA4F
:10373000900180585695979528F4805C660F771F06
:10374000881F20F026173707480730F4621B730BD9
:10375000840B202931294A2BA695179407942025FC
:1037600031254A2758F7660F771F881F20F0261744
:103770003707480730F4620B730B840B200D311DA3
:10378000411DA09581F7B901842F9158880F969516
:10379000879508950E943419880B990B08959F3FCF
:1037A00031F0915020F4879577956795B795880FFC
:1037B000911D9695879597F9089591505040660F01
:1037C000771F881FD2F7089597FB072E16F40094F1
:1037D00007D077FD09D00E94481C07FC05D03EF4B5
:1037E000909581959F4F0895709561957F4F0895AD
:1037F000A1E21A2EAA1BBB1BFD010DC0AA1FBB1FF5
:10380000EE1FFF1FA217B307E407F50720F0A21B66
:10381000B30BE40BF50B661F771F881F991F1A94D3
:1038200069F760957095809590959B01AC01BD01FD
:10383000CF010895052E97FB1EF400940E94311CC1
:1038400057FD07D00E94F81B07FC03D04EF40C94E0
:10385000311C50954095309521953F4F4F4F5F4F0C
:10386000089590958095709561957F4F8F4F9F4FEC
:1038700008950E945B1A332312F48A1B9B0B0C944D
:10388000431C0E945B1AB7FF0895821B930B089597
:10389000AA1BBB1B51E107C0AA1FBB1FA617B70776
:1038A00010F0A61BB70B881F991F5A95A9F7809592
:1038B0009095BC01CD010895EE0FFF1F0590F49186
:1038C000E02D0994CF93DF938230910510F482E0CC
:1038D00090E0E0913A07F0913B0720E030E0C0E053
:1038E000D0E0309711F14081518148175907C0F05D
:1038F0004817590761F482819381209719F09B83BF
:103900008A832BC090933B0780933A0726C02115EA
:10391000310519F04217530718F49A01BE01DF016F
:10392000EF010280F381E02DDCCF2115310509F193
:10393000281B390B2430310590F412968D919C91FF
:1039400013976115710521F0FB019383828304C0F5
:1039500090933B0780933A07FD01329644C0FD01E6
:10396000E20FF31F81939193225031092D933C93E1
:103970003AC02091380730913907232B41F4209128
:103980000F013091100130933907209338072091AF
:103990000D0130910E012115310541F42DB73EB7CF
:1039A0004091110150911201241B350BE091380711
:1039B000F0913907E217F307A0F42E1B3F0B2817ED
:1039C000390778F0AC014E5F5F4F2417350748F098
:1039D0004E0F5F1F5093390740933807819391939F
:1039E00002C0E0E0F0E0CF01DF91CF9108950F93A6
:1039F0001F93CF93DF93009709F48CC0FC0132979B
:103A00001382128200913A0710913B0701151105AC
:103A100081F420813181820F931F209138073091EA
:103A200039072817390779F5F0933907E0933807F4
:103A300071C0D80140E050E0AE17BF0750F41296B5
:103A40002D913C911397AD012115310509F1D90153
:103A5000F3CF9D01DA013383228360817181860F68
:103A6000971F8217930769F4EC0128813981260F8B
:103A7000371F2E5F3F4F318320838A819B81938341
:103A80008283452B29F4F0933B07E0933A0742C029
:103A90001396FC93EE931297ED01499159919E0173
:103AA000240F351FE217F30771F480819181840F91
:103AB000951F029611969C938E9382819381139603
:103AC0009C938E931297E0E0F0E0D80112968D91CE
:103AD0009C911397009719F0F8018C01F6CF8D9106
:103AE0009C9198012E5F3F4F820F931F20913807C2
:103AF000309139072817390769F4309729F4109263
:103B00003B0710923A0702C01382128210933907C2
:103B100000933807DF91CF911F910F910895A0E096
:103B2000B0E0E5E9FDE10C94281AEC01009721F4DE
:103B3000CB010E94621CB8C0FC01E60FF71F9C017C
:103B400022503109E217F30708F4ACC0D9010D91F6
:103B50001C91119706171707B0F00530110508F4EE
:103B60009FC0C80104978617970708F499C00250B0
:103B70001109061B170B019311936D937C93CF01D1
:103B80000E94F71C8DC05B01A01AB10A4C01800E87
:103B9000911EA0913A07B0913B0740E050E0E12C24
:103BA000F12C109709F44AC0A815B905D1F56D900C
:103BB0007C901197630182E0C80ED11CCA14DB040B
:103BC00080F1A3014A195B096A0182E0C80ED11C89
:103BD0001296BC9012971396AC91B5E0CB16D10417
:103BE00040F0B282A38351834083D9016D937C93CB
:103BF0000AC00E5F1F4FC301800F911FF90191830F
:103C00008083EB2DFA2FE114F10431F0D7011396E4
:103C1000FC93EE93129744C0F0933B07E0933A076E
:103C20003FC08D919C9111974817590708F4AC013A
:103C30007D0112960D90BC91A02DB3CF80913807D5
:103C40009091390788159905E1F446175707C8F48C
:103C500080910D0190910E01009741F48DB79EB7B0
:103C60004091110150911201841B950BE817F9073F
:103C7000C8F4F0933907E0933807F9017183608342
:103C80000FC0CB010E94621C7C01009759F0A80173
:103C9000BE010E945E1ECE010E94F71CC70104C037
:103CA000CE0102C080E090E0CDB7DEB7EEE00C942C
:103CB000441A81E090E0F8940C94771EFB01DC013B
:103CC00002C001900D9241505040D8F70895FB0179
:103CD000DC018D91019080190110D9F3990B0895A1
:103CE000FB01DC0101900D920020E1F70895F894AA
:023CF000FFCF04
:103CF200F602F602297C8643D2000108E600003C67
:103D02000780005E00BC0077010000000000350261
:103D1200A201CD017C02FE01DC01F001656D6F6E36
:103D220054782056332E3420446973637265746567
:103D32002053616D706C696E672056004F70656E1E
:103D4200456E657267794D6F6E69746F722E6F7210
:103D52006700504F53542E2E2E2E2E7761697420F9
:103D620031307300272B2B2B27207468656E205B64
:103D7200456E7465725D20666F7220524620636FD5
:103D82006E666967206D6F6465002B2B2B0D0A0030
:103D9200456E746572696E6720636F6E666967202F
:103DA2006D6F64652E2E2E00435420312043616CCA
:103DB2002000435420322043616C200043542033BE
:103DC2002043616C2000435420342043616C200066
:103DD200524D5320566F6C74616765206F6E20419F
:103DE200432D4143202069733A207E0041432D41F7
:103DF20043206465746563746564202D2052656197
:103E02006C20506F776572206D65617375726520E5
:103E1200656E61626C656400617373756D696E676E
:103E2200207077722066726F6D2041432D414320CE
:103E3200286A756D70657220636C6F736564290002
:103E4200555341206D6F6465206163746976650026
:103E52005663616C3A20005068617365205368694B
:103E620066743A200041432D4143204E4F54206452
:103E720065746563746564202D204170706172659C
:103E82006E7420507772206D65617375726520655E
:103E92006E61626C656400417373756D696E672053
:103EA20056524D533A2000417373756D696E672007
:103EB200706F7765722066726F6D20626174742014
:103EC2002F20355620555342202D20706F77657272
:103ED200207361766520656E61626C6564004E4F89
:103EE20020435427732064657465637465640043DA
:103EF2005420312064657465637465640043542002
:103F02003220646574656374656400435420332011
:103F12006465746563746564004354203420646589
:103F220074656374656400446574656374656420D4
:103F320054656D702053656E736F72733A20200062
:103F42004E6F2074656D7065726174757265207351
:103F5200656E736F720043543120435432204354D0
:103F620033204354342056524D532F42415454204F
:103F720050554C5345002054656D706572617475DF
:103F8200726520312D0020204354312D6D41006394
:103F920074313A002C6374323A002C6374333A0061
:103FA2002C6374343A002C76726D733A002C70755F
:103FB2006C73653A002C6D413A002C7400536176A3
:103FC200696E672E2E2E00446F6E652E204E657729
:103FD20020636F6E66696720736176656420746F13
:103FE20020454550524F4D006E616E00696E66006D
:043FF2006F76660080
:00000001FF
